{
  "contractName": "EmeraldProperties",
  "abi": [
    {
      "inputs": [],
      "stateMutability": "nonpayable",
      "type": "constructor"
    },
    {
      "inputs": [
        {
          "internalType": "string",
          "name": "_color",
          "type": "string"
        }
      ],
      "name": "SetColor",
      "outputs": [],
      "stateMutability": "nonpayable",
      "type": "function"
    },
    {
      "inputs": [
        {
          "internalType": "string",
          "name": "_size",
          "type": "string"
        }
      ],
      "name": "SetSize",
      "outputs": [],
      "stateMutability": "nonpayable",
      "type": "function"
    },
    {
      "inputs": [
        {
          "internalType": "string",
          "name": "_cutType",
          "type": "string"
        }
      ],
      "name": "SetCutType",
      "outputs": [],
      "stateMutability": "nonpayable",
      "type": "function"
    },
    {
      "inputs": [
        {
          "internalType": "string",
          "name": "_cutType",
          "type": "string"
        }
      ],
      "name": "SetShape",
      "outputs": [],
      "stateMutability": "nonpayable",
      "type": "function"
    },
    {
      "inputs": [
        {
          "internalType": "string",
          "name": "_clarityGrade",
          "type": "string"
        }
      ],
      "name": "SetClarityGrade",
      "outputs": [],
      "stateMutability": "nonpayable",
      "type": "function"
    },
    {
      "inputs": [
        {
          "internalType": "uint256",
          "name": "_weight",
          "type": "uint256"
        }
      ],
      "name": "SetWeight",
      "outputs": [],
      "stateMutability": "nonpayable",
      "type": "function"
    }
  ],
  "bytecode": "0x608060405234801561001057600080fd5b5061043e806100206000396000f3fe608060405234801561001057600080fd5b50600436106100625760003560e01c8063028b6568146100675780631b29ec9f1461010d578063a3bf4c8d1461012a578063a679bb55146101ce578063af057d5f14610272578063c04de41b1461012a575b600080fd5b61010b6004803603602081101561007d57600080fd5b810190602081018135600160201b81111561009757600080fd5b8201836020820111156100a957600080fd5b803590602001918460018302840111600160201b831117156100ca57600080fd5b91908080601f016020809104026020016040519081016040528093929190818152602001838380828437600092019190915250929550610316945050505050565b005b61010b6004803603602081101561012357600080fd5b503561032d565b61010b6004803603602081101561014057600080fd5b810190602081018135600160201b81111561015a57600080fd5b82018360208201111561016c57600080fd5b803590602001918460018302840111600160201b8311171561018d57600080fd5b91908080601f016020809104026020016040519081016040528093929190818152602001838380828437600092019190915250929550610332945050505050565b61010b600480360360208110156101e457600080fd5b810190602081018135600160201b8111156101fe57600080fd5b82018360208201111561021057600080fd5b803590602001918460018302840111600160201b8311171561023157600080fd5b91908080601f016020809104026020016040519081016040528093929190818152602001838380828437600092019190915250929550610345945050505050565b61010b6004803603602081101561028857600080fd5b810190602081018135600160201b8111156102a257600080fd5b8201836020820111156102b457600080fd5b803590602001918460018302840111600160201b831117156102d557600080fd5b91908080601f016020809104026020016040519081016040528093929190818152602001838380828437600092019190915250929550610358945050505050565b8051610329906003906020840190610367565b5050565b600555565b8051610329906000906020840190610367565b8051610329906002906020840190610367565b80516103299060049060208401905b828054600181600116156101000203166002900490600052602060002090601f01602090048101928261039d57600085556103e3565b82601f106103b657805160ff19168380011785556103e3565b828001600101855582156103e3579182015b828111156103e35782518255916020019190600101906103c8565b506103ef9291506103f3565b5090565b5b808211156103ef57600081556001016103f456fea26469706673582212201eadcc338b4220f7c289aff746aba94b5ae11c5f4e322973e64166831a00bc6e64736f6c63430007060033",
  "immutableReferences": {},
  "source": "// Contracts/EmeraldProperties.sol\r\n// SPDX-License-Identifier: MIT\r\npragma solidity >=0.6.0 <0.8.0;    \r\n\r\ncontract EmeraldProperties {\r\n\r\n    string cutType; //Emerald cut type\r\n    string shape; // Emerald shape\r\n    string size; // Lenght, width and depth in mm\r\n    string color; // Emerald color [Hue, Tone, saturation]\r\n    string clarityGrade; // Emerald clarity grade\r\n    //string notes; // Notes about the emerald  \r\n    uint weight; // Emerald weight in grams\r\n \r\n    constructor() {   }\r\n\r\n    function SetColor(string memory _color) public\r\n        {\r\n        color = _color;\r\n        }\r\n\r\n    function SetSize(string memory _size) public\r\n        {\r\n        size = _size;\r\n        }        \r\n    \r\n    function SetCutType(string memory _cutType) public {\r\n        cutType = _cutType;\r\n    }\r\n\r\n    function SetShape(string memory _cutType) public {\r\n        cutType = _cutType;\r\n    }\r\n\r\n    function SetClarityGrade(string memory _clarityGrade) public {\r\n        clarityGrade = _clarityGrade;\r\n    }\r\n\r\n    // function SetNotes(string memory _notes) public {\r\n    //     notes = _notes;\r\n    // }\r\n\r\n    function SetWeight(uint _weight) public {\r\n        weight = _weight;\r\n    }\r\n    \r\n    \r\n}",
  "sourcePath": "C:/GitHub/emerald-ethdapp-supplychain/src/contracts/emeraldbase/EmeraldProperties.sol",
  "compiler": {
    "name": "solc",
    "version": "0.7.6+commit.7338295f.Emscripten.clang"
  },
  "schemaVersion": "3.3.4",
  "updatedAt": "2021-02-24T00:03:37.596Z",
  "networkType": "ethereum",
  "devdoc": {
    "kind": "dev",
    "methods": {},
    "version": 1
  },
  "userdoc": {
    "kind": "user",
    "methods": {},
    "version": 1
  }
}