{
  "contractName": "Emerald",
  "abi": [
    {
      "inputs": [],
      "stateMutability": "nonpayable",
      "type": "constructor"
    },
    {
      "inputs": [
        {
          "internalType": "uint256",
          "name": "_sku",
          "type": "uint256"
        },
        {
          "internalType": "uint256",
          "name": "_upc",
          "type": "uint256"
        },
        {
          "internalType": "address payable",
          "name": "_originMinerID",
          "type": "address"
        },
        {
          "internalType": "string",
          "name": "_originMineName",
          "type": "string"
        },
        {
          "internalType": "string",
          "name": "_originMineInformation",
          "type": "string"
        },
        {
          "internalType": "string",
          "name": "_originMineLatitude",
          "type": "string"
        },
        {
          "internalType": "string",
          "name": "_originMineLongitude",
          "type": "string"
        }
      ],
      "name": "SetExtractionInfo",
      "outputs": [],
      "stateMutability": "nonpayable",
      "type": "function"
    },
    {
      "inputs": [
        {
          "internalType": "string",
          "name": "_scaleInfo",
          "type": "string"
        }
      ],
      "name": "SetScaleInfo",
      "outputs": [],
      "stateMutability": "nonpayable",
      "type": "function"
    },
    {
      "inputs": [
        {
          "internalType": "string",
          "name": "_certifiedProperties",
          "type": "string"
        }
      ],
      "name": "SetCertifiedInfo",
      "outputs": [],
      "stateMutability": "nonpayable",
      "type": "function"
    },
    {
      "inputs": [
        {
          "internalType": "string",
          "name": "_manofactureInfo",
          "type": "string"
        }
      ],
      "name": "SetManufacturedInfo",
      "outputs": [],
      "stateMutability": "nonpayable",
      "type": "function"
    },
    {
      "inputs": [
        {
          "internalType": "enum EmeraldStates.State",
          "name": "_state",
          "type": "uint8"
        }
      ],
      "name": "SetEmeraldState",
      "outputs": [],
      "stateMutability": "nonpayable",
      "type": "function"
    },
    {
      "inputs": [
        {
          "internalType": "address",
          "name": "_newOwnerID",
          "type": "address"
        }
      ],
      "name": "SetOwnerID",
      "outputs": [],
      "stateMutability": "nonpayable",
      "type": "function"
    },
    {
      "inputs": [
        {
          "internalType": "address",
          "name": "_laboratoryID",
          "type": "address"
        }
      ],
      "name": "AuthorizeLab",
      "outputs": [],
      "stateMutability": "nonpayable",
      "type": "function"
    },
    {
      "inputs": [
        {
          "internalType": "address",
          "name": "_custodianID",
          "type": "address"
        }
      ],
      "name": "AuthorizeCustodian",
      "outputs": [],
      "stateMutability": "nonpayable",
      "type": "function"
    },
    {
      "inputs": [
        {
          "internalType": "address payable",
          "name": "_manufacturerID",
          "type": "address"
        }
      ],
      "name": "SetManufacturerID",
      "outputs": [],
      "stateMutability": "nonpayable",
      "type": "function"
    },
    {
      "inputs": [
        {
          "internalType": "address payable",
          "name": "_customerID",
          "type": "address"
        }
      ],
      "name": "SetCustomerID",
      "outputs": [],
      "stateMutability": "nonpayable",
      "type": "function"
    },
    {
      "inputs": [],
      "name": "GetSku",
      "outputs": [
        {
          "internalType": "uint256",
          "name": "",
          "type": "uint256"
        }
      ],
      "stateMutability": "view",
      "type": "function",
      "constant": true
    },
    {
      "inputs": [],
      "name": "GetUpc",
      "outputs": [
        {
          "internalType": "uint256",
          "name": "",
          "type": "uint256"
        }
      ],
      "stateMutability": "view",
      "type": "function",
      "constant": true
    },
    {
      "inputs": [],
      "name": "GetProductID",
      "outputs": [
        {
          "internalType": "uint256",
          "name": "",
          "type": "uint256"
        }
      ],
      "stateMutability": "view",
      "type": "function",
      "constant": true
    },
    {
      "inputs": [],
      "name": "GetOwnerID",
      "outputs": [
        {
          "internalType": "address",
          "name": "",
          "type": "address"
        }
      ],
      "stateMutability": "view",
      "type": "function",
      "constant": true
    },
    {
      "inputs": [],
      "name": "getOriginMinerID",
      "outputs": [
        {
          "internalType": "address payable",
          "name": "",
          "type": "address"
        }
      ],
      "stateMutability": "view",
      "type": "function",
      "constant": true
    },
    {
      "inputs": [],
      "name": "GetMarketPrice",
      "outputs": [
        {
          "internalType": "uint256",
          "name": "",
          "type": "uint256"
        }
      ],
      "stateMutability": "view",
      "type": "function",
      "constant": true
    },
    {
      "inputs": [
        {
          "internalType": "uint256",
          "name": "_marketPrice",
          "type": "uint256"
        }
      ],
      "name": "SetMarketPrice",
      "outputs": [],
      "stateMutability": "nonpayable",
      "type": "function"
    },
    {
      "inputs": [],
      "name": "GetCustomerID",
      "outputs": [
        {
          "internalType": "address payable",
          "name": "",
          "type": "address"
        }
      ],
      "stateMutability": "view",
      "type": "function",
      "constant": true
    },
    {
      "inputs": [],
      "name": "GetCustodianID",
      "outputs": [
        {
          "internalType": "address",
          "name": "",
          "type": "address"
        }
      ],
      "stateMutability": "view",
      "type": "function",
      "constant": true
    },
    {
      "inputs": [],
      "name": "GetLaboratoryID",
      "outputs": [
        {
          "internalType": "address",
          "name": "",
          "type": "address"
        }
      ],
      "stateMutability": "view",
      "type": "function",
      "constant": true
    },
    {
      "inputs": [],
      "name": "getManufacturerID",
      "outputs": [
        {
          "internalType": "address payable",
          "name": "",
          "type": "address"
        }
      ],
      "stateMutability": "view",
      "type": "function",
      "constant": true
    },
    {
      "inputs": [],
      "name": "GetEmeraldState",
      "outputs": [
        {
          "internalType": "enum EmeraldStates.State",
          "name": "",
          "type": "uint8"
        }
      ],
      "stateMutability": "view",
      "type": "function",
      "constant": true
    },
    {
      "inputs": [],
      "name": "GetMineName",
      "outputs": [
        {
          "internalType": "string",
          "name": "",
          "type": "string"
        }
      ],
      "stateMutability": "view",
      "type": "function",
      "constant": true
    },
    {
      "inputs": [],
      "name": "GetMineInformation",
      "outputs": [
        {
          "internalType": "string",
          "name": "",
          "type": "string"
        }
      ],
      "stateMutability": "view",
      "type": "function",
      "constant": true
    },
    {
      "inputs": [],
      "name": "GetMineLatitude",
      "outputs": [
        {
          "internalType": "string",
          "name": "",
          "type": "string"
        }
      ],
      "stateMutability": "view",
      "type": "function",
      "constant": true
    },
    {
      "inputs": [],
      "name": "GetMineLongitude",
      "outputs": [
        {
          "internalType": "string",
          "name": "",
          "type": "string"
        }
      ],
      "stateMutability": "view",
      "type": "function",
      "constant": true
    },
    {
      "inputs": [],
      "name": "GetBasicInfo",
      "outputs": [
        {
          "internalType": "bytes",
          "name": "",
          "type": "bytes"
        }
      ],
      "stateMutability": "view",
      "type": "function",
      "constant": true
    },
    {
      "inputs": [],
      "name": "GetDetailedInfo",
      "outputs": [
        {
          "internalType": "bytes",
          "name": "",
          "type": "bytes"
        }
      ],
      "stateMutability": "view",
      "type": "function",
      "constant": true
    }
  ],
  "bytecode": "0x608060405234801561001057600080fd5b50611049806100206000396000f3fe608060405234801561001057600080fd5b50600436106101c45760003560e01c8063934f6070116100f9578063cbaf1bfb11610097578063d5ae93f811610071578063d5ae93f81461075e578063e800a82e14610766578063f006167514610783578063f6f7b343146107a9576101c4565b8063cbaf1bfb1461070a578063d057eba914610730578063d47d02d814610756576101c4565b8063bbf8f78e116100d3578063bbf8f78e1461064e578063c0da9316146106f2578063c3395568146106fa578063c9368b2014610702576101c4565b8063934f6070146103d75780639496a259146103f7578063af60d38c14610646576101c4565b80636ababa64116101665780636d8ce63c116101405780636d8ce63c1461031b57806374442722146103235780637fd87ee01461032b578063913c3a2c14610333576101c4565b80636ababa64146102e75780636b0153f0146102ef5780636d36dbbb14610313576101c4565b806318cb897c116101a257806318cb897c146102945780631caa734f1461029c5780631e446db5146102b657806343befbfc146102be576101c4565b80630227e61b146101c95780630a48eb97146101f1578063180b96ab14610217575b600080fd5b6101ef600480360360208110156101df57600080fd5b50356001600160a01b031661084d565b005b6101ef6004803603602081101561020757600080fd5b50356001600160a01b031661086f565b61021f610891565b6040805160208082528351818301528351919283929083019185019080838360005b83811015610259578181015183820152602001610241565b50505050905090810190601f1680156102865780820380516001836020036101000a031916815260200191505b509250505060405180910390f35b61021f610927565b6102a46109ef565b60408051918252519081900360200190f35b61021f6109f5565b6102c6610a56565b604051808260128111156102d657fe5b815260200191505060405180910390f35b61021f610a5f565b6102f7610ac0565b604080516001600160a01b039092168252519081900360200190f35b6102f7610acf565b6102f7610ade565b6102a4610aed565b6102f7610af3565b6101ef6004803603602081101561034957600080fd5b810190602081018135600160201b81111561036357600080fd5b82018360208201111561037557600080fd5b803590602001918460018302840111600160201b8311171561039657600080fd5b91908080601f016020809104026020016040519081016040528093929190818152602001838380828437600092019190915250929550610b02945050505050565b6101ef600480360360208110156103ed57600080fd5b503560ff16610b19565b6101ef600480360360e081101561040d57600080fd5b8135916020810135916001600160a01b036040830135169190810190608081016060820135600160201b81111561044357600080fd5b82018360208201111561045557600080fd5b803590602001918460018302840111600160201b8311171561047657600080fd5b91908080601f0160208091040260200160405190810160405280939291908181526020018383808284376000920191909152509295949360208101935035915050600160201b8111156104c857600080fd5b8201836020820111156104da57600080fd5b803590602001918460018302840111600160201b831117156104fb57600080fd5b91908080601f0160208091040260200160405190810160405280939291908181526020018383808284376000920191909152509295949360208101935035915050600160201b81111561054d57600080fd5b82018360208201111561055f57600080fd5b803590602001918460018302840111600160201b8311171561058057600080fd5b91908080601f0160208091040260200160405190810160405280939291908181526020018383808284376000920191909152509295949360208101935035915050600160201b8111156105d257600080fd5b8201836020820111156105e457600080fd5b803590602001918460018302840111600160201b8311171561060557600080fd5b91908080601f016020809104026020016040519081016040528093929190818152602001838380828437600092019190915250929550610b3a945050505050565b6102a4610c0b565b6101ef6004803603602081101561066457600080fd5b810190602081018135600160201b81111561067e57600080fd5b82018360208201111561069057600080fd5b803590602001918460018302840111600160201b831117156106b157600080fd5b91908080601f016020809104026020016040519081016040528093929190818152602001838380828437600092019190915250929550610c11945050505050565b61021f610c24565b6102f7610e73565b61021f610e82565b6101ef6004803603602081101561072057600080fd5b50356001600160a01b0316610ee3565b6101ef6004803603602081101561074657600080fd5b50356001600160a01b0316610f05565b6102f7610f27565b6102a4610f36565b6101ef6004803603602081101561077c57600080fd5b5035610f3c565b6101ef6004803603602081101561079957600080fd5b50356001600160a01b0316610f41565b6101ef600480360360208110156107bf57600080fd5b810190602081018135600160201b8111156107d957600080fd5b8201836020820111156107eb57600080fd5b803590602001918460018302840111600160201b8311171561080c57600080fd5b91908080601f016020809104026020016040519081016040528093929190818152602001838380828437600092019190915250929550610f63945050505050565b600280546001600160a01b0319166001600160a01b0392909216919091179055565b600f80546001600160a01b0319166001600160a01b0392909216919091179055565b60078054604080516020601f600260001961010060018816150201909516949094049384018190048102820181019092528281526060939092909183018282801561091d5780601f106108f25761010080835404028352916020019161091d565b820191906000526020600020905b81548152906001019060200180831161090057829003601f168201915b5050505050905090565b600054600154600854600d54600954600e54600f5460105460115460408051602081018b81529181018a905260608181018a9052608082018990529a9998979660ff16956001600160a01b039081169581169481169316919060a00186601281111561098f57fe5b8152602001856001600160a01b03168152602001846001600160a01b03168152602001836001600160a01b03168152602001826001600160a01b031681526020019950505050505050505050604051602081830303815290604052905090565b60015490565b60058054604080516020601f600260001961010060018816150201909516949094049384018190048102820181019092528281526060939092909183018282801561091d5780601f106108f25761010080835404028352916020019161091d565b60095460ff1690565b60048054604080516020601f600260001961010060018816150201909516949094049384018190048102820181019092528281526060939092909183018282801561091d5780601f106108f25761010080835404028352916020019161091d565b6002546001600160a01b031690565b6011546001600160a01b031690565b600e546001600160a01b031690565b60005490565b600f546001600160a01b031690565b8051610b1590600a906020840190610f72565b5050565b6009805482919060ff19166001836012811115610b3257fe5b021790555050565b60008790556001869055600280546001600160a01b0387166001600160a01b031991821681179092556003805490911690911790558351610b82906004906020870190610f72565b508251610b96906005906020860190610f72565b508151610baa906006906020850190610f72565b508051610bbe906007906020840190610f72565b5050600080549590950160085550506009805460ff191690555050600d5550600e80546001600160a01b0319908116909155600f8054821690556010805482169055601180549091169055565b600d5490565b8051610b1590600c906020840190610f72565b6000546001805460035460408051602081018681529181018490526001600160a01b0390921660608084018290526080840182905261010060a08501818152600480546002998116158402600019011698909804610120870181905292989793958695600594600694600794929360c081019260e082019282019161014001908a908015610cf35780601f10610cc857610100808354040283529160200191610cf3565b820191906000526020600020905b815481529060010190602001808311610cd657829003601f168201915b5050858103845288546002600019610100600184161502019091160480825260209091019089908015610d675780601f10610d3c57610100808354040283529160200191610d67565b820191906000526020600020905b815481529060010190602001808311610d4a57829003601f168201915b5050858103835287546002600019610100600184161502019091160480825260209091019088908015610ddb5780601f10610db057610100808354040283529160200191610ddb565b820191906000526020600020905b815481529060010190602001808311610dbe57829003601f168201915b5050858103825286546002600019610100600184161502019091160480825260209091019087908015610e4f5780601f10610e2457610100808354040283529160200191610e4f565b820191906000526020600020905b815481529060010190602001808311610e3257829003601f168201915b50509c50505050505050505050505050604051602081830303815290604052905090565b6010546001600160a01b031690565b60068054604080516020601f600260001961010060018816150201909516949094049384018190048102820181019092528281526060939092909183018282801561091d5780601f106108f25761010080835404028352916020019161091d565b600e80546001600160a01b0319166001600160a01b0392909216919091179055565b601180546001600160a01b0319166001600160a01b0392909216919091179055565b6003546001600160a01b031690565b60085490565b600d55565b601080546001600160a01b0319166001600160a01b0392909216919091179055565b8051610b1590600b9060208401905b828054600181600116156101000203166002900490600052602060002090601f016020900481019282610fa85760008555610fee565b82601f10610fc157805160ff1916838001178555610fee565b82800160010185558215610fee579182015b82811115610fee578251825591602001919060010190610fd3565b50610ffa929150610ffe565b5090565b5b80821115610ffa5760008155600101610fff56fea2646970667358221220678b5da31838cf8a26649db3b2d7f0cd7bbed2736c2c7d6234c03c980c5fae8064736f6c63430007060033",
  "immutableReferences": {},
  "source": "// Contracts/Emeral.sol\r\n// SPDX-License-Identifier: MIT\r\npragma solidity >=0.6.0 <0.8.0;\r\n\r\nimport \"./EmeraldProperties.sol\";\r\nimport \"./EmeraldStates.sol\";\r\n\r\ncontract Emerald {\r\n  \r\n    // Product identification and owndership\r\n    uint sku;  // Stock Keeping Unit (SKU)\r\n    uint upc; // Universal Product Code (UPC), generated by the Farmer, goes on the package, can be verified by the Consumer\r\n    address ownerID;  // Metamask-Ethereum address of the current owner as the product moves through 8 stages\r\n    \r\n    // Product origin information\r\n    address payable originMinerID; // Metamask-Ethereum address of the Farmer\r\n    //Mine mine; // Mine information\r\n    string originMineName;\r\n    string originMineInformation;\r\n    string originMineLatitude;\r\n    string originMineLongitude;\r\n\r\n    uint productID;  // Product ID potentially a combination of upc + sku\r\n    EmeraldStates.State emeraldState;// Emerald state as represented in the enum above\r\n\r\n    // Detailed emerald infomation\r\n    string scaleInfo;\r\n    string certifiedProperties;\r\n    string manofactureInfo;\r\n\r\n    uint marketPrice; // Emerald's market price\r\n\r\n    // Roles applied along the emerald lifecycle \r\n    address laboratoryID;  // Metamask-Ethereum address of the Laboratory\r\n    address custodianID; // Metamask-Ethereum address of the Custodian\r\n    address payable manufacturerID; // Metamask-Ethereum address of the Manufacturer (Cutter)\r\n    address payable customerID; // Metamask-Ethereum address of the Customer\r\n \r\n    constructor() {   }\r\n\r\n    function SetExtractionInfo(\r\n        uint _sku,\r\n        uint _upc,\r\n        address payable _originMinerID,\r\n        string memory _originMineName,\r\n        string memory _originMineInformation, \r\n        string memory _originMineLatitude, \r\n        string memory _originMineLongitude)\r\n        public\r\n        {\r\n        \r\n        sku = _sku;\r\n        upc = _upc;\r\n        ownerID = _originMinerID;\r\n        originMinerID = _originMinerID;\r\n        originMineName = _originMineName;\r\n        originMineInformation = _originMineInformation; \r\n        originMineLatitude = _originMineLatitude;\r\n        originMineLongitude = _originMineLongitude;\r\n     \r\n        //mine.SetMineInfo(_originMineName, _originMineInformation, _originMineLatitude, _originMineLongitude);\r\n        productID = sku + _upc;\r\n        emeraldState = EmeraldStates.State.Mined;\r\n        marketPrice = 0;\r\n        laboratoryID = address(0); \r\n        custodianID = address(0);\r\n        manufacturerID = address(0);\r\n        customerID = address(0);\r\n    }\r\n\r\n    function SetScaleInfo(\r\n        string memory _scaleInfo)\r\n        public\r\n        {\r\n                \r\n        scaleInfo = _scaleInfo;\r\n\r\n    }\r\n\r\n    function SetCertifiedInfo(string memory _certifiedProperties)\r\n        public\r\n        {\r\n                \r\n        certifiedProperties = _certifiedProperties;\r\n\r\n    }\r\n\r\n    function SetManufacturedInfo(string memory _manofactureInfo)\r\n        public\r\n        {\r\n                \r\n        manofactureInfo = _manofactureInfo;\r\n    }\r\n\r\n    function SetEmeraldState(EmeraldStates.State _state)  public {\r\n        emeraldState = _state; \r\n    }\r\n\r\n    function SetOwnerID(address _newOwnerID) public {\r\n        ownerID = _newOwnerID; \r\n    }    \r\n\r\n    function AuthorizeLab(address _laboratoryID) public {\r\n        laboratoryID = _laboratoryID;\r\n    }\r\n\r\n    function AuthorizeCustodian(address _custodianID) public {\r\n        custodianID = _custodianID;\r\n    }\r\n\r\n    function SetManufacturerID(address payable _manufacturerID) public {\r\n        manufacturerID = _manufacturerID;\r\n    }\r\n\r\n    function SetCustomerID(address payable _customerID) public {\r\n        customerID = _customerID;\r\n    }\r\n\r\n    function GetSku() public view returns (uint){\r\n        return sku;\r\n    }\r\n\r\n    function GetUpc() public view returns (uint){\r\n        return upc;\r\n    }\r\n\r\n    function GetProductID() public view returns (uint){\r\n        return productID;\r\n    }    \r\n\r\n    function GetOwnerID() public view returns (address){\r\n        return ownerID;\r\n    }\r\n\r\n    function getOriginMinerID() public view returns (address payable){\r\n        return originMinerID;\r\n    }\r\n    \r\n    function GetMarketPrice() public view returns (uint){\r\n        return marketPrice;\r\n    }\r\n\r\n    function SetMarketPrice(uint _marketPrice) public {\r\n        marketPrice = _marketPrice;\r\n    }\r\n\r\n    function GetCustomerID() public view returns (address payable){\r\n        return customerID;\r\n    }\r\n\r\n    function GetCustodianID() public view returns (address){\r\n        return custodianID;\r\n    }\r\n\r\n    function GetLaboratoryID() public view returns (address){\r\n        return laboratoryID;\r\n    }\r\n\r\n    function getManufacturerID() public view returns (address payable){\r\n        return manufacturerID;\r\n    }         \r\n\r\n    function GetEmeraldState() public view returns (EmeraldStates.State){\r\n        return emeraldState;\r\n    }\r\n\r\n    function GetMineName() public view returns (string memory){\r\n         return originMineName;\r\n    }\r\n\r\n    function GetMineInformation() public view returns (string memory){\r\n         return originMineInformation;\r\n    }\r\n\r\n    function GetMineLatitude() public view returns (string memory){\r\n         return originMineLatitude;\r\n    }\r\n    function GetMineLongitude() public view returns (string memory){\r\n         return originMineLongitude;\r\n    }\r\n\r\n    function GetBasicInfo() public view returns (bytes memory){\r\n        return(\r\n            abi.encode(sku,\r\n                       upc,\r\n                       originMinerID,\r\n                       originMinerID,\r\n                       originMineName,\r\n                       originMineInformation,\r\n                       originMineLatitude,\r\n                       originMineLongitude)\r\n        );\r\n    }\r\n\r\n    function GetDetailedInfo() public view returns (bytes memory){\r\n        return(\r\n            abi.encode(sku,\r\n                       upc,\r\n                       productID,\r\n                       marketPrice,\r\n                       emeraldState,\r\n                       laboratoryID,\r\n                       custodianID,\r\n                       manufacturerID,\r\n                       customerID)\r\n        );\r\n    }\r\n\r\n}",
  "sourcePath": "C:/GitHub/emerald-ethdapp-supplychain/src/contracts/emeraldbase/Emerald.sol",
  "compiler": {
    "name": "solc",
    "version": "0.7.6+commit.7338295f.Emscripten.clang"
  },
  "schemaVersion": "3.3.4",
  "updatedAt": "2021-02-24T00:03:37.593Z",
  "networkType": "ethereum",
  "devdoc": {
    "kind": "dev",
    "methods": {},
    "version": 1
  },
  "userdoc": {
    "kind": "user",
    "methods": {},
    "version": 1
  }
}