{
  "contractName": "LaboratoryRole",
  "abi": [
    {
      "inputs": [],
      "stateMutability": "nonpayable",
      "type": "constructor"
    },
    {
      "anonymous": false,
      "inputs": [
        {
          "indexed": true,
          "internalType": "address",
          "name": "account",
          "type": "address"
        }
      ],
      "name": "LaboratoryAdded",
      "type": "event"
    },
    {
      "anonymous": false,
      "inputs": [
        {
          "indexed": true,
          "internalType": "address",
          "name": "account",
          "type": "address"
        }
      ],
      "name": "LaboratoryRemoved",
      "type": "event"
    },
    {
      "anonymous": false,
      "inputs": [
        {
          "indexed": true,
          "internalType": "bytes32",
          "name": "role",
          "type": "bytes32"
        },
        {
          "indexed": true,
          "internalType": "bytes32",
          "name": "previousAdminRole",
          "type": "bytes32"
        },
        {
          "indexed": true,
          "internalType": "bytes32",
          "name": "newAdminRole",
          "type": "bytes32"
        }
      ],
      "name": "RoleAdminChanged",
      "type": "event"
    },
    {
      "anonymous": false,
      "inputs": [
        {
          "indexed": true,
          "internalType": "bytes32",
          "name": "role",
          "type": "bytes32"
        },
        {
          "indexed": true,
          "internalType": "address",
          "name": "account",
          "type": "address"
        },
        {
          "indexed": true,
          "internalType": "address",
          "name": "sender",
          "type": "address"
        }
      ],
      "name": "RoleGranted",
      "type": "event"
    },
    {
      "anonymous": false,
      "inputs": [
        {
          "indexed": true,
          "internalType": "bytes32",
          "name": "role",
          "type": "bytes32"
        },
        {
          "indexed": true,
          "internalType": "address",
          "name": "account",
          "type": "address"
        },
        {
          "indexed": true,
          "internalType": "address",
          "name": "sender",
          "type": "address"
        }
      ],
      "name": "RoleRevoked",
      "type": "event"
    },
    {
      "inputs": [],
      "name": "DEFAULT_ADMIN_ROLE",
      "outputs": [
        {
          "internalType": "bytes32",
          "name": "",
          "type": "bytes32"
        }
      ],
      "stateMutability": "view",
      "type": "function",
      "constant": true
    },
    {
      "inputs": [],
      "name": "LABORATORY_ROLE",
      "outputs": [
        {
          "internalType": "bytes32",
          "name": "",
          "type": "bytes32"
        }
      ],
      "stateMutability": "view",
      "type": "function",
      "constant": true
    },
    {
      "inputs": [
        {
          "internalType": "bytes32",
          "name": "role",
          "type": "bytes32"
        }
      ],
      "name": "getRoleAdmin",
      "outputs": [
        {
          "internalType": "bytes32",
          "name": "",
          "type": "bytes32"
        }
      ],
      "stateMutability": "view",
      "type": "function",
      "constant": true
    },
    {
      "inputs": [
        {
          "internalType": "bytes32",
          "name": "role",
          "type": "bytes32"
        },
        {
          "internalType": "uint256",
          "name": "index",
          "type": "uint256"
        }
      ],
      "name": "getRoleMember",
      "outputs": [
        {
          "internalType": "address",
          "name": "",
          "type": "address"
        }
      ],
      "stateMutability": "view",
      "type": "function",
      "constant": true
    },
    {
      "inputs": [
        {
          "internalType": "bytes32",
          "name": "role",
          "type": "bytes32"
        }
      ],
      "name": "getRoleMemberCount",
      "outputs": [
        {
          "internalType": "uint256",
          "name": "",
          "type": "uint256"
        }
      ],
      "stateMutability": "view",
      "type": "function",
      "constant": true
    },
    {
      "inputs": [
        {
          "internalType": "bytes32",
          "name": "role",
          "type": "bytes32"
        },
        {
          "internalType": "address",
          "name": "account",
          "type": "address"
        }
      ],
      "name": "grantRole",
      "outputs": [],
      "stateMutability": "nonpayable",
      "type": "function"
    },
    {
      "inputs": [
        {
          "internalType": "bytes32",
          "name": "role",
          "type": "bytes32"
        },
        {
          "internalType": "address",
          "name": "account",
          "type": "address"
        }
      ],
      "name": "hasRole",
      "outputs": [
        {
          "internalType": "bool",
          "name": "",
          "type": "bool"
        }
      ],
      "stateMutability": "view",
      "type": "function",
      "constant": true
    },
    {
      "inputs": [
        {
          "internalType": "bytes32",
          "name": "role",
          "type": "bytes32"
        },
        {
          "internalType": "address",
          "name": "account",
          "type": "address"
        }
      ],
      "name": "renounceRole",
      "outputs": [],
      "stateMutability": "nonpayable",
      "type": "function"
    },
    {
      "inputs": [
        {
          "internalType": "bytes32",
          "name": "role",
          "type": "bytes32"
        },
        {
          "internalType": "address",
          "name": "account",
          "type": "address"
        }
      ],
      "name": "revokeRole",
      "outputs": [],
      "stateMutability": "nonpayable",
      "type": "function"
    },
    {
      "inputs": [
        {
          "internalType": "address",
          "name": "account",
          "type": "address"
        }
      ],
      "name": "isLaboratory",
      "outputs": [
        {
          "internalType": "bool",
          "name": "",
          "type": "bool"
        }
      ],
      "stateMutability": "view",
      "type": "function",
      "constant": true
    },
    {
      "inputs": [
        {
          "internalType": "address",
          "name": "account",
          "type": "address"
        }
      ],
      "name": "addLaboratory",
      "outputs": [],
      "stateMutability": "nonpayable",
      "type": "function"
    },
    {
      "inputs": [],
      "name": "renounceLaboratory",
      "outputs": [],
      "stateMutability": "nonpayable",
      "type": "function"
    }
  ],
  "bytecode": "0x60806040523480156200001157600080fd5b506200002860006200002262000039565b6200003d565b62000033336200004d565b62000216565b3390565b6200004982826200007c565b5050565b620000797fc9f41f19cd323609a8840e20c19f0688fff7f2c7796dc69350af80f75835f81582620000f5565b50565b600082815260208181526040909120620000a19183906200049f62000159821b17901c565b156200004957620000b162000039565b6001600160a01b0316816001600160a01b0316837f2f8788117e7eff1d82e926ec794901d17c78024a50270940304540a733656f0d60405160405180910390a45050565b6000828152602081905260409020600201546200011c906200011662000039565b62000179565b6200003d5760405162461bcd60e51b815260040180806020018281038252602f81526020018062000ab7602f913960400191505060405180910390fd5b600062000170836001600160a01b0384166200019d565b90505b92915050565b600082815260208181526040822062000170918490620004b4620001ec821b17901c565b6000620001ab8383620001fe565b620001e35750815460018181018455600084815260208082209093018490558454848252828601909352604090209190915562000173565b50600062000173565b600062000170836001600160a01b0384165b60009081526001919091016020526040902054151590565b61089180620002266000396000f3fe608060405234801561001057600080fd5b50600436106100b45760003560e01c80639010d07c116100715780639010d07c146101aa57806391d14854146101e9578063a217fddf14610215578063b4dc323c1461021d578063ca15c87314610225578063d547741f14610242576100b4565b8063248a9ca3146100b957806327706584146100e85780632f2ff15d1461012257806336568abe14610150578063404203b91461017c5780637fe21243146101a2575b600080fd5b6100d6600480360360208110156100cf57600080fd5b503561026e565b60408051918252519081900360200190f35b61010e600480360360208110156100fe57600080fd5b50356001600160a01b0316610283565b604080519115158252519081900360200190f35b61014e6004803603604081101561013857600080fd5b50803590602001356001600160a01b03166102a3565b005b61014e6004803603604081101561016657600080fd5b50803590602001356001600160a01b031661030f565b61014e6004803603602081101561019257600080fd5b50356001600160a01b0316610370565b6100d66103d6565b6101cd600480360360408110156101c057600080fd5b50803590602001356103e8565b604080516001600160a01b039092168252519081900360200190f35b61010e600480360360408110156101ff57600080fd5b50803590602001356001600160a01b0316610407565b6100d661041f565b61014e610424565b6100d66004803603602081101561023b57600080fd5b503561042f565b61014e6004803603604081101561025857600080fd5b50803590602001356001600160a01b0316610446565b60009081526020819052604090206002015490565b600061029d60008051602061080d83398151915283610407565b92915050565b6000828152602081905260409020600201546102c6906102c16104c9565b610407565b6103015760405162461bcd60e51b815260040180806020018281038252602f8152602001806107ae602f913960400191505060405180910390fd5b61030b82826104cd565b5050565b6103176104c9565b6001600160a01b0316816001600160a01b0316146103665760405162461bcd60e51b815260040180806020018281038252602f81526020018061082d602f913960400191505060405180910390fd5b61030b8282610536565b61037933610283565b6103ca576040805162461bcd60e51b815260206004820152601b60248201527f43616c6c6572206973206e6f742061204c61626f7261746f72792e0000000000604482015290519081900360640190fd5b6103d38161059f565b50565b60008051602061080d83398151915281565b600082815260208190526040812061040090836105b7565b9392505050565b600082815260208190526040812061040090836104b4565b600081565b61042d336105c3565b565b600081815260208190526040812061029d906105db565b600082815260208190526040902060020154610464906102c16104c9565b6103665760405162461bcd60e51b81526004018080602001828103825260308152602001806107dd6030913960400191505060405180910390fd5b6000610400836001600160a01b0384166105e6565b6000610400836001600160a01b038416610630565b3390565b60008281526020819052604090206104e5908261049f565b1561030b576104f26104c9565b6001600160a01b0316816001600160a01b0316837f2f8788117e7eff1d82e926ec794901d17c78024a50270940304540a733656f0d60405160405180910390a45050565b600082815260208190526040902061054e9082610648565b1561030b5761055b6104c9565b6001600160a01b0316816001600160a01b0316837ff6391f5c32d9c69d2a47ea670b442974b53935d1edc7fd64eb21e047a839171b60405160405180910390a45050565b6103d360008051602061080d833981519152826102a3565b6000610400838361065d565b6103d360008051602061080d83398151915282610446565b600061029d826106c1565b60006105f28383610630565b6106285750815460018181018455600084815260208082209093018490558454848252828601909352604090209190915561029d565b50600061029d565b60009081526001919091016020526040902054151590565b6000610400836001600160a01b0384166106c5565b8154600090821061069f5760405162461bcd60e51b815260040180806020018281038252602281526020018061078c6022913960400191505060405180910390fd5b8260000182815481106106ae57fe5b9060005260206000200154905092915050565b5490565b6000818152600183016020526040812054801561078157835460001980830191908101906000908790839081106106f857fe5b906000526020600020015490508087600001848154811061071557fe5b60009182526020808320909101929092558281526001898101909252604090209084019055865487908061074557fe5b6001900381819060005260206000200160009055905586600101600087815260200190815260200160002060009055600194505050505061029d565b600091505061029d56fe456e756d657261626c655365743a20696e646578206f7574206f6620626f756e6473416363657373436f6e74726f6c3a2073656e646572206d75737420626520616e2061646d696e20746f206772616e74416363657373436f6e74726f6c3a2073656e646572206d75737420626520616e2061646d696e20746f207265766f6b65c9f41f19cd323609a8840e20c19f0688fff7f2c7796dc69350af80f75835f815416363657373436f6e74726f6c3a2063616e206f6e6c792072656e6f756e636520726f6c657320666f722073656c66a26469706673582212207b02dd0087e0fd5b3c1573a2ae2c2f6ab9dcdbc63f31019076e70f3c0040c0a364736f6c63430007060033416363657373436f6e74726f6c3a2073656e646572206d75737420626520616e2061646d696e20746f206772616e74",
  "immutableReferences": {},
  "source": "// SPDX-License-Identifier: MIT\r\npragma solidity >=0.6.0 <0.8.0;\r\n\r\n// Import the library 'AccessControl' fron Openzeppelin\r\nimport \"@openzeppelin/contracts/access/AccessControl.sol\";\r\n\r\n// Define a contract 'RetailerRole' to manage this role - add, remove, check\r\ncontract LaboratoryRole is AccessControl {\r\n\r\n  //using Roles for Roles.Role;\r\n  bytes32 public constant LABORATORY_ROLE = keccak256(\"LABORATORY_ROLE\");\r\n\r\n  // Define 2 events, one for Adding, and other for Removing\r\n  event LaboratoryAdded(address indexed account);\r\n  event LaboratoryRemoved(address indexed account);\r\n\r\n  // In the constructor make the address that deploys this contract the 1st retailer\r\n  constructor() {\r\n    _setupRole(DEFAULT_ADMIN_ROLE, _msgSender());\r\n    _addLaboratory(msg.sender); \r\n  }\r\n\r\n  // Define a modifier that checks to see if msg.sender has the appropriate role\r\n  modifier onlyLaboratory() {\r\n    require(isLaboratory(msg.sender), \"Caller is not a Laboratory.\");    \r\n    _;\r\n  }\r\n\r\n  // Define a function 'isRetailer' to check this role\r\n  function isLaboratory(address account) public view returns (bool) {\r\n    return hasRole(LABORATORY_ROLE, account);\r\n    //return laboratories.has(account);  \r\n  }\r\n\r\n  // Define a function 'addRetailer' that adds this role\r\n  function addLaboratory(address account) public onlyLaboratory {\r\n    _addLaboratory(account);\r\n  }\r\n\r\n  // Define a function 'renounceRetailer' to renounce this role\r\n  function renounceLaboratory() public {\r\n    _removeLaboratory(msg.sender);\r\n  }\r\n\r\n  // Define an internal function '_addRetailer' to add this role, called by 'addRetailer'\r\n  function _addLaboratory(address account) internal {\r\n    grantRole(LABORATORY_ROLE, account);\r\n  }\r\n\r\n  // Define an internal function '_removeRetailer' to remove this role, called by 'removeRetailer'\r\n  function _removeLaboratory(address account) internal {\r\n    revokeRole(LABORATORY_ROLE, account);\r\n  }\r\n}",
  "sourcePath": "C:/GitHub/marketplace/src/contracts/emeraldaccesscontrol/LaboratoryRole.sol",
  "compiler": {
    "name": "solc",
    "version": "0.7.6+commit.7338295f.Emscripten.clang"
  },
  "schemaVersion": "3.3.4",
  "updatedAt": "2021-02-22T03:38:48.653Z",
  "networkType": "ethereum",
  "devdoc": {
    "kind": "dev",
    "methods": {
      "getRoleAdmin(bytes32)": {
        "details": "Returns the admin role that controls `role`. See {grantRole} and {revokeRole}. To change a role's admin, use {_setRoleAdmin}."
      },
      "getRoleMember(bytes32,uint256)": {
        "details": "Returns one of the accounts that have `role`. `index` must be a value between 0 and {getRoleMemberCount}, non-inclusive. Role bearers are not sorted in any particular way, and their ordering may change at any point. WARNING: When using {getRoleMember} and {getRoleMemberCount}, make sure you perform all queries on the same block. See the following https://forum.openzeppelin.com/t/iterating-over-elements-on-enumerableset-in-openzeppelin-contracts/2296[forum post] for more information."
      },
      "getRoleMemberCount(bytes32)": {
        "details": "Returns the number of accounts that have `role`. Can be used together with {getRoleMember} to enumerate all bearers of a role."
      },
      "grantRole(bytes32,address)": {
        "details": "Grants `role` to `account`. If `account` had not been already granted `role`, emits a {RoleGranted} event. Requirements: - the caller must have ``role``'s admin role."
      },
      "hasRole(bytes32,address)": {
        "details": "Returns `true` if `account` has been granted `role`."
      },
      "renounceRole(bytes32,address)": {
        "details": "Revokes `role` from the calling account. Roles are often managed via {grantRole} and {revokeRole}: this function's purpose is to provide a mechanism for accounts to lose their privileges if they are compromised (such as when a trusted device is misplaced). If the calling account had been granted `role`, emits a {RoleRevoked} event. Requirements: - the caller must be `account`."
      },
      "revokeRole(bytes32,address)": {
        "details": "Revokes `role` from `account`. If `account` had been granted `role`, emits a {RoleRevoked} event. Requirements: - the caller must have ``role``'s admin role."
      }
    },
    "version": 1
  },
  "userdoc": {
    "kind": "user",
    "methods": {},
    "version": 1
  }
}