{
  "contractName": "MinerRole",
  "abi": [
    {
      "inputs": [],
      "stateMutability": "nonpayable",
      "type": "constructor"
    },
    {
      "anonymous": false,
      "inputs": [
        {
          "indexed": true,
          "internalType": "bytes32",
          "name": "role",
          "type": "bytes32"
        },
        {
          "indexed": true,
          "internalType": "bytes32",
          "name": "previousAdminRole",
          "type": "bytes32"
        },
        {
          "indexed": true,
          "internalType": "bytes32",
          "name": "newAdminRole",
          "type": "bytes32"
        }
      ],
      "name": "RoleAdminChanged",
      "type": "event"
    },
    {
      "anonymous": false,
      "inputs": [
        {
          "indexed": true,
          "internalType": "bytes32",
          "name": "role",
          "type": "bytes32"
        },
        {
          "indexed": true,
          "internalType": "address",
          "name": "account",
          "type": "address"
        },
        {
          "indexed": true,
          "internalType": "address",
          "name": "sender",
          "type": "address"
        }
      ],
      "name": "RoleGranted",
      "type": "event"
    },
    {
      "anonymous": false,
      "inputs": [
        {
          "indexed": true,
          "internalType": "bytes32",
          "name": "role",
          "type": "bytes32"
        },
        {
          "indexed": true,
          "internalType": "address",
          "name": "account",
          "type": "address"
        },
        {
          "indexed": true,
          "internalType": "address",
          "name": "sender",
          "type": "address"
        }
      ],
      "name": "RoleRevoked",
      "type": "event"
    },
    {
      "inputs": [],
      "name": "DEFAULT_ADMIN_ROLE",
      "outputs": [
        {
          "internalType": "bytes32",
          "name": "",
          "type": "bytes32"
        }
      ],
      "stateMutability": "view",
      "type": "function",
      "constant": true
    },
    {
      "inputs": [],
      "name": "MINER_ROLE",
      "outputs": [
        {
          "internalType": "bytes32",
          "name": "",
          "type": "bytes32"
        }
      ],
      "stateMutability": "view",
      "type": "function",
      "constant": true
    },
    {
      "inputs": [
        {
          "internalType": "bytes32",
          "name": "role",
          "type": "bytes32"
        }
      ],
      "name": "getRoleAdmin",
      "outputs": [
        {
          "internalType": "bytes32",
          "name": "",
          "type": "bytes32"
        }
      ],
      "stateMutability": "view",
      "type": "function",
      "constant": true
    },
    {
      "inputs": [
        {
          "internalType": "bytes32",
          "name": "role",
          "type": "bytes32"
        },
        {
          "internalType": "uint256",
          "name": "index",
          "type": "uint256"
        }
      ],
      "name": "getRoleMember",
      "outputs": [
        {
          "internalType": "address",
          "name": "",
          "type": "address"
        }
      ],
      "stateMutability": "view",
      "type": "function",
      "constant": true
    },
    {
      "inputs": [
        {
          "internalType": "bytes32",
          "name": "role",
          "type": "bytes32"
        }
      ],
      "name": "getRoleMemberCount",
      "outputs": [
        {
          "internalType": "uint256",
          "name": "",
          "type": "uint256"
        }
      ],
      "stateMutability": "view",
      "type": "function",
      "constant": true
    },
    {
      "inputs": [
        {
          "internalType": "bytes32",
          "name": "role",
          "type": "bytes32"
        },
        {
          "internalType": "address",
          "name": "account",
          "type": "address"
        }
      ],
      "name": "grantRole",
      "outputs": [],
      "stateMutability": "nonpayable",
      "type": "function"
    },
    {
      "inputs": [
        {
          "internalType": "bytes32",
          "name": "role",
          "type": "bytes32"
        },
        {
          "internalType": "address",
          "name": "account",
          "type": "address"
        }
      ],
      "name": "hasRole",
      "outputs": [
        {
          "internalType": "bool",
          "name": "",
          "type": "bool"
        }
      ],
      "stateMutability": "view",
      "type": "function",
      "constant": true
    },
    {
      "inputs": [
        {
          "internalType": "bytes32",
          "name": "role",
          "type": "bytes32"
        },
        {
          "internalType": "address",
          "name": "account",
          "type": "address"
        }
      ],
      "name": "renounceRole",
      "outputs": [],
      "stateMutability": "nonpayable",
      "type": "function"
    },
    {
      "inputs": [
        {
          "internalType": "bytes32",
          "name": "role",
          "type": "bytes32"
        },
        {
          "internalType": "address",
          "name": "account",
          "type": "address"
        }
      ],
      "name": "revokeRole",
      "outputs": [],
      "stateMutability": "nonpayable",
      "type": "function"
    },
    {
      "inputs": [
        {
          "internalType": "address",
          "name": "account",
          "type": "address"
        }
      ],
      "name": "isMiner",
      "outputs": [
        {
          "internalType": "bool",
          "name": "",
          "type": "bool"
        }
      ],
      "stateMutability": "view",
      "type": "function",
      "constant": true
    },
    {
      "inputs": [
        {
          "internalType": "address",
          "name": "account",
          "type": "address"
        }
      ],
      "name": "addMiner",
      "outputs": [],
      "stateMutability": "nonpayable",
      "type": "function"
    },
    {
      "inputs": [],
      "name": "renounceMiner",
      "outputs": [],
      "stateMutability": "nonpayable",
      "type": "function"
    }
  ],
  "bytecode": "0x60806040523480156200001157600080fd5b506200002860006200002262000039565b6200003d565b62000033336200004d565b62000216565b3390565b6200004982826200007c565b5050565b620000797fa952726ef2588ad078edf35b066f7c7406e207cb0003bbaba8cb53eba9553e7282620000f5565b50565b600082815260208181526040909120620000a19183906200045762000159821b17901c565b156200004957620000b162000039565b6001600160a01b0316816001600160a01b0316837f2f8788117e7eff1d82e926ec794901d17c78024a50270940304540a733656f0d60405160405180910390a45050565b6000828152602081905260409020600201546200011c906200011662000039565b62000179565b6200003d5760405162461bcd60e51b815260040180806020018281038252602f81526020018062000a6f602f913960400191505060405180910390fd5b600062000170836001600160a01b0384166200019d565b90505b92915050565b6000828152602081815260408220620001709184906200046c620001ec821b17901c565b6000620001ab8383620001fe565b620001e35750815460018181018455600084815260208082209093018490558454848252828601909352604090209190915562000173565b50600062000173565b600062000170836001600160a01b0384165b60009081526001919091016020526040902054151590565b61084980620002266000396000f3fe608060405234801561001057600080fd5b50600436106100b45760003560e01c806391d148541161007157806391d14854146101c3578063a217fddf146101ef578063ae46352a146101f7578063ca15c873146101ff578063d547741f1461021c578063f3982e5e14610248576100b4565b8063248a9ca3146100b95780632f2ff15d146100e857806336568abe146101165780636394f6e614610142578063701b70ac1461014a5780639010d07c14610184575b600080fd5b6100d6600480360360208110156100cf57600080fd5b503561026e565b60408051918252519081900360200190f35b610114600480360360408110156100fe57600080fd5b50803590602001356001600160a01b0316610283565b005b6101146004803603604081101561012c57600080fd5b50803590602001356001600160a01b03166102ef565b6100d6610350565b6101706004803603602081101561016057600080fd5b50356001600160a01b0316610362565b604080519115158252519081900360200190f35b6101a76004803603604081101561019a57600080fd5b5080359060200135610382565b604080516001600160a01b039092168252519081900360200190f35b610170600480360360408110156101d957600080fd5b50803590602001356001600160a01b03166103a1565b6100d66103b9565b6101146103be565b6100d66004803603602081101561021557600080fd5b50356103c9565b6101146004803603604081101561023257600080fd5b50803590602001356001600160a01b03166103e0565b6101146004803603602081101561025e57600080fd5b50356001600160a01b0316610439565b60009081526020819052604090206002015490565b6000828152602081905260409020600201546102a6906102a1610481565b6103a1565b6102e15760405162461bcd60e51b815260040180806020018281038252602f815260200180610766602f913960400191505060405180910390fd5b6102eb8282610485565b5050565b6102f7610481565b6001600160a01b0316816001600160a01b0316146103465760405162461bcd60e51b815260040180806020018281038252602f8152602001806107e5602f913960400191505060405180910390fd5b6102eb82826104ee565b6000805160206107c583398151915281565b600061037c6000805160206107c5833981519152836103a1565b92915050565b600082815260208190526040812061039a9083610557565b9392505050565b600082815260208190526040812061039a908361046c565b600081565b6103c733610563565b565b600081815260208190526040812061037c9061057b565b6000828152602081905260409020600201546103fe906102a1610481565b6103465760405162461bcd60e51b81526004018080602001828103825260308152602001806107956030913960400191505060405180910390fd5b61044233610362565b61044b57600080fd5b61045481610586565b50565b600061039a836001600160a01b03841661059e565b600061039a836001600160a01b0384166105e8565b3390565b600082815260208190526040902061049d9082610457565b156102eb576104aa610481565b6001600160a01b0316816001600160a01b0316837f2f8788117e7eff1d82e926ec794901d17c78024a50270940304540a733656f0d60405160405180910390a45050565b60008281526020819052604090206105069082610600565b156102eb57610513610481565b6001600160a01b0316816001600160a01b0316837ff6391f5c32d9c69d2a47ea670b442974b53935d1edc7fd64eb21e047a839171b60405160405180910390a45050565b600061039a8383610615565b6104546000805160206107c5833981519152826103e0565b600061037c82610679565b6104546000805160206107c583398151915282610283565b60006105aa83836105e8565b6105e05750815460018181018455600084815260208082209093018490558454848252828601909352604090209190915561037c565b50600061037c565b60009081526001919091016020526040902054151590565b600061039a836001600160a01b03841661067d565b815460009082106106575760405162461bcd60e51b81526004018080602001828103825260228152602001806107446022913960400191505060405180910390fd5b82600001828154811061066657fe5b9060005260206000200154905092915050565b5490565b6000818152600183016020526040812054801561073957835460001980830191908101906000908790839081106106b057fe5b90600052602060002001549050808760000184815481106106cd57fe5b6000918252602080832090910192909255828152600189810190925260409020908401905586548790806106fd57fe5b6001900381819060005260206000200160009055905586600101600087815260200190815260200160002060009055600194505050505061037c565b600091505061037c56fe456e756d657261626c655365743a20696e646578206f7574206f6620626f756e6473416363657373436f6e74726f6c3a2073656e646572206d75737420626520616e2061646d696e20746f206772616e74416363657373436f6e74726f6c3a2073656e646572206d75737420626520616e2061646d696e20746f207265766f6b65a952726ef2588ad078edf35b066f7c7406e207cb0003bbaba8cb53eba9553e72416363657373436f6e74726f6c3a2063616e206f6e6c792072656e6f756e636520726f6c657320666f722073656c66a264697066735822122076a2eb911b9c7599745b7c3d187d7f0e5569da4698caf5a01dc2c9bd191d0d3864736f6c63430007060033416363657373436f6e74726f6c3a2073656e646572206d75737420626520616e2061646d696e20746f206772616e74",
  "immutableReferences": {},
  "source": "// SPDX-License-Identifier: MIT\r\npragma solidity >=0.6.0 <0.8.0;\r\n\r\n// Import the library 'AccessControl' fron Openzeppelin\r\nimport \"@openzeppelin/contracts/access/AccessControl.sol\";\r\n\r\n// Import the library 'Roles'\r\n//import \"./Roles.sol\";\r\n\r\n// Define a contract 'FarmerRole' to manage this role - add, remove, check\r\ncontract MinerRole is AccessControl{\r\n\r\n  bytes32 public constant MINER_ROLE = keccak256(\"MINER_ROLE\");\r\n\r\n  // In the constructor make the address that deploys this contract the 1st miner\r\n  constructor() {\r\n    _setupRole(DEFAULT_ADMIN_ROLE, _msgSender());\r\n    _addMiner(msg.sender);\r\n  }\r\n\r\n  // Define a modifier that checks to see if msg.sender has the appropriate role\r\n  modifier onlyMiner() {\r\n    require(isMiner(msg.sender));\r\n    _;\r\n  }\r\n\r\n  // Define a function 'isMiner' to check this role\r\n  function isMiner(address account) public view returns (bool) {\r\n    return hasRole(MINER_ROLE,account);\r\n  }\r\n\r\n  // Define a function 'addMiner' that adds this role\r\n  function addMiner(address account) public onlyMiner {\r\n    _addMiner(account);\r\n  }\r\n\r\n  // Define a function 'renounceMiner' to renounce this role\r\n  function renounceMiner() public {\r\n    _removeMiner(msg.sender);\r\n  }\r\n\r\n  // Define an internal function '_addMiner' to add this role, called by 'addFarmer'\r\n  function _addMiner(address account) internal {\r\n    grantRole(MINER_ROLE, account);\r\n  }\r\n\r\n  // Define an internal function '_removeMiner' to remove this role, called by 'removeFarmer'\r\n  function _removeMiner(address account) internal {\r\n    revokeRole(MINER_ROLE, account);\r\n  }\r\n}",
  "sourcePath": "C:/GitHub/emerald-ethdapp-supplychain/src/contracts/emeraldaccesscontrol/MinerRole.sol",
  "compiler": {
    "name": "solc",
    "version": "0.7.6+commit.7338295f.Emscripten.clang"
  },
  "schemaVersion": "3.3.4",
  "updatedAt": "2021-02-24T19:19:03.530Z",
  "networkType": "ethereum",
  "devdoc": {
    "kind": "dev",
    "methods": {
      "getRoleAdmin(bytes32)": {
        "details": "Returns the admin role that controls `role`. See {grantRole} and {revokeRole}. To change a role's admin, use {_setRoleAdmin}."
      },
      "getRoleMember(bytes32,uint256)": {
        "details": "Returns one of the accounts that have `role`. `index` must be a value between 0 and {getRoleMemberCount}, non-inclusive. Role bearers are not sorted in any particular way, and their ordering may change at any point. WARNING: When using {getRoleMember} and {getRoleMemberCount}, make sure you perform all queries on the same block. See the following https://forum.openzeppelin.com/t/iterating-over-elements-on-enumerableset-in-openzeppelin-contracts/2296[forum post] for more information."
      },
      "getRoleMemberCount(bytes32)": {
        "details": "Returns the number of accounts that have `role`. Can be used together with {getRoleMember} to enumerate all bearers of a role."
      },
      "grantRole(bytes32,address)": {
        "details": "Grants `role` to `account`. If `account` had not been already granted `role`, emits a {RoleGranted} event. Requirements: - the caller must have ``role``'s admin role."
      },
      "hasRole(bytes32,address)": {
        "details": "Returns `true` if `account` has been granted `role`."
      },
      "renounceRole(bytes32,address)": {
        "details": "Revokes `role` from the calling account. Roles are often managed via {grantRole} and {revokeRole}: this function's purpose is to provide a mechanism for accounts to lose their privileges if they are compromised (such as when a trusted device is misplaced). If the calling account had been granted `role`, emits a {RoleRevoked} event. Requirements: - the caller must be `account`."
      },
      "revokeRole(bytes32,address)": {
        "details": "Revokes `role` from `account`. If `account` had been granted `role`, emits a {RoleRevoked} event. Requirements: - the caller must have ``role``'s admin role."
      }
    },
    "version": 1
  },
  "userdoc": {
    "kind": "user",
    "methods": {},
    "version": 1
  }
}