{
  "contractName": "SupplyChain",
  "abi": [
    {
      "inputs": [],
      "stateMutability": "nonpayable",
      "type": "constructor"
    },
    {
      "anonymous": false,
      "inputs": [
        {
          "indexed": false,
          "internalType": "uint256",
          "name": "upc",
          "type": "uint256"
        }
      ],
      "name": "Buyed",
      "type": "event"
    },
    {
      "anonymous": false,
      "inputs": [
        {
          "indexed": false,
          "internalType": "uint256",
          "name": "upc",
          "type": "uint256"
        }
      ],
      "name": "Certified",
      "type": "event"
    },
    {
      "anonymous": false,
      "inputs": [
        {
          "indexed": false,
          "internalType": "uint256",
          "name": "upc",
          "type": "uint256"
        }
      ],
      "name": "Delivered",
      "type": "event"
    },
    {
      "anonymous": false,
      "inputs": [
        {
          "indexed": false,
          "internalType": "uint256",
          "name": "upc",
          "type": "uint256"
        }
      ],
      "name": "ForSale",
      "type": "event"
    },
    {
      "anonymous": false,
      "inputs": [
        {
          "indexed": false,
          "internalType": "uint256",
          "name": "upc",
          "type": "uint256"
        }
      ],
      "name": "LabReceived",
      "type": "event"
    },
    {
      "anonymous": false,
      "inputs": [
        {
          "indexed": true,
          "internalType": "address",
          "name": "account",
          "type": "address"
        }
      ],
      "name": "LaboratoryAdded",
      "type": "event"
    },
    {
      "anonymous": false,
      "inputs": [
        {
          "indexed": true,
          "internalType": "address",
          "name": "account",
          "type": "address"
        }
      ],
      "name": "LaboratoryRemoved",
      "type": "event"
    },
    {
      "anonymous": false,
      "inputs": [
        {
          "indexed": false,
          "internalType": "uint256",
          "name": "upc",
          "type": "uint256"
        }
      ],
      "name": "Manufactured",
      "type": "event"
    },
    {
      "anonymous": false,
      "inputs": [
        {
          "indexed": false,
          "internalType": "uint256",
          "name": "upc",
          "type": "uint256"
        }
      ],
      "name": "ManufacturerReceived",
      "type": "event"
    },
    {
      "anonymous": false,
      "inputs": [
        {
          "indexed": false,
          "internalType": "uint256",
          "name": "upc",
          "type": "uint256"
        }
      ],
      "name": "Mined",
      "type": "event"
    },
    {
      "anonymous": false,
      "inputs": [
        {
          "indexed": true,
          "internalType": "address",
          "name": "previousOwner",
          "type": "address"
        },
        {
          "indexed": true,
          "internalType": "address",
          "name": "newOwner",
          "type": "address"
        }
      ],
      "name": "OwnershipTransferred",
      "type": "event"
    },
    {
      "anonymous": false,
      "inputs": [
        {
          "indexed": false,
          "internalType": "uint256",
          "name": "upc",
          "type": "uint256"
        }
      ],
      "name": "PackedForLab",
      "type": "event"
    },
    {
      "anonymous": false,
      "inputs": [
        {
          "indexed": false,
          "internalType": "uint256",
          "name": "upc",
          "type": "uint256"
        }
      ],
      "name": "PackedForSale",
      "type": "event"
    },
    {
      "anonymous": false,
      "inputs": [
        {
          "indexed": false,
          "internalType": "uint256",
          "name": "upc",
          "type": "uint256"
        }
      ],
      "name": "Published",
      "type": "event"
    },
    {
      "anonymous": false,
      "inputs": [
        {
          "indexed": true,
          "internalType": "bytes32",
          "name": "role",
          "type": "bytes32"
        },
        {
          "indexed": true,
          "internalType": "bytes32",
          "name": "previousAdminRole",
          "type": "bytes32"
        },
        {
          "indexed": true,
          "internalType": "bytes32",
          "name": "newAdminRole",
          "type": "bytes32"
        }
      ],
      "name": "RoleAdminChanged",
      "type": "event"
    },
    {
      "anonymous": false,
      "inputs": [
        {
          "indexed": true,
          "internalType": "bytes32",
          "name": "role",
          "type": "bytes32"
        },
        {
          "indexed": true,
          "internalType": "address",
          "name": "account",
          "type": "address"
        },
        {
          "indexed": true,
          "internalType": "address",
          "name": "sender",
          "type": "address"
        }
      ],
      "name": "RoleGranted",
      "type": "event"
    },
    {
      "anonymous": false,
      "inputs": [
        {
          "indexed": true,
          "internalType": "bytes32",
          "name": "role",
          "type": "bytes32"
        },
        {
          "indexed": true,
          "internalType": "address",
          "name": "account",
          "type": "address"
        },
        {
          "indexed": true,
          "internalType": "address",
          "name": "sender",
          "type": "address"
        }
      ],
      "name": "RoleRevoked",
      "type": "event"
    },
    {
      "anonymous": false,
      "inputs": [
        {
          "indexed": false,
          "internalType": "uint256",
          "name": "upc",
          "type": "uint256"
        }
      ],
      "name": "Scaled",
      "type": "event"
    },
    {
      "anonymous": false,
      "inputs": [
        {
          "indexed": false,
          "internalType": "uint256",
          "name": "upc",
          "type": "uint256"
        }
      ],
      "name": "ShipToManufacture",
      "type": "event"
    },
    {
      "anonymous": false,
      "inputs": [
        {
          "indexed": false,
          "internalType": "uint256",
          "name": "upc",
          "type": "uint256"
        }
      ],
      "name": "ShipedToLab",
      "type": "event"
    },
    {
      "anonymous": false,
      "inputs": [
        {
          "indexed": false,
          "internalType": "uint256",
          "name": "upc",
          "type": "uint256"
        }
      ],
      "name": "ShippedToCustomer",
      "type": "event"
    },
    {
      "anonymous": false,
      "inputs": [
        {
          "indexed": false,
          "internalType": "uint256",
          "name": "upc",
          "type": "uint256"
        }
      ],
      "name": "ShippedToStore",
      "type": "event"
    },
    {
      "anonymous": false,
      "inputs": [
        {
          "indexed": false,
          "internalType": "uint256",
          "name": "upc",
          "type": "uint256"
        }
      ],
      "name": "Sold",
      "type": "event"
    },
    {
      "anonymous": false,
      "inputs": [
        {
          "indexed": false,
          "internalType": "uint256",
          "name": "upc",
          "type": "uint256"
        }
      ],
      "name": "StorageReceived",
      "type": "event"
    },
    {
      "anonymous": false,
      "inputs": [
        {
          "indexed": false,
          "internalType": "uint256",
          "name": "upc",
          "type": "uint256"
        }
      ],
      "name": "Stored",
      "type": "event"
    },
    {
      "inputs": [],
      "name": "CUSTODIAN_ROLE",
      "outputs": [
        {
          "internalType": "bytes32",
          "name": "",
          "type": "bytes32"
        }
      ],
      "stateMutability": "view",
      "type": "function",
      "constant": true
    },
    {
      "inputs": [],
      "name": "CUSTOMER_ROLE",
      "outputs": [
        {
          "internalType": "bytes32",
          "name": "",
          "type": "bytes32"
        }
      ],
      "stateMutability": "view",
      "type": "function",
      "constant": true
    },
    {
      "inputs": [],
      "name": "DEFAULT_ADMIN_ROLE",
      "outputs": [
        {
          "internalType": "bytes32",
          "name": "",
          "type": "bytes32"
        }
      ],
      "stateMutability": "view",
      "type": "function",
      "constant": true
    },
    {
      "inputs": [],
      "name": "LABORATORY_ROLE",
      "outputs": [
        {
          "internalType": "bytes32",
          "name": "",
          "type": "bytes32"
        }
      ],
      "stateMutability": "view",
      "type": "function",
      "constant": true
    },
    {
      "inputs": [],
      "name": "MANUFACTURER_ROLE",
      "outputs": [
        {
          "internalType": "bytes32",
          "name": "",
          "type": "bytes32"
        }
      ],
      "stateMutability": "view",
      "type": "function",
      "constant": true
    },
    {
      "inputs": [],
      "name": "MINER_ROLE",
      "outputs": [
        {
          "internalType": "bytes32",
          "name": "",
          "type": "bytes32"
        }
      ],
      "stateMutability": "view",
      "type": "function",
      "constant": true
    },
    {
      "inputs": [
        {
          "internalType": "address",
          "name": "account",
          "type": "address"
        }
      ],
      "name": "addCustodian",
      "outputs": [],
      "stateMutability": "nonpayable",
      "type": "function"
    },
    {
      "inputs": [
        {
          "internalType": "address",
          "name": "account",
          "type": "address"
        }
      ],
      "name": "addCustomer",
      "outputs": [],
      "stateMutability": "nonpayable",
      "type": "function"
    },
    {
      "inputs": [
        {
          "internalType": "address",
          "name": "account",
          "type": "address"
        }
      ],
      "name": "addLaboratory",
      "outputs": [],
      "stateMutability": "nonpayable",
      "type": "function"
    },
    {
      "inputs": [
        {
          "internalType": "address",
          "name": "account",
          "type": "address"
        }
      ],
      "name": "addManufacturer",
      "outputs": [],
      "stateMutability": "nonpayable",
      "type": "function"
    },
    {
      "inputs": [
        {
          "internalType": "address",
          "name": "account",
          "type": "address"
        }
      ],
      "name": "addMiner",
      "outputs": [],
      "stateMutability": "nonpayable",
      "type": "function"
    },
    {
      "inputs": [
        {
          "internalType": "bytes32",
          "name": "role",
          "type": "bytes32"
        }
      ],
      "name": "getRoleAdmin",
      "outputs": [
        {
          "internalType": "bytes32",
          "name": "",
          "type": "bytes32"
        }
      ],
      "stateMutability": "view",
      "type": "function",
      "constant": true
    },
    {
      "inputs": [
        {
          "internalType": "bytes32",
          "name": "role",
          "type": "bytes32"
        },
        {
          "internalType": "uint256",
          "name": "index",
          "type": "uint256"
        }
      ],
      "name": "getRoleMember",
      "outputs": [
        {
          "internalType": "address",
          "name": "",
          "type": "address"
        }
      ],
      "stateMutability": "view",
      "type": "function",
      "constant": true
    },
    {
      "inputs": [
        {
          "internalType": "bytes32",
          "name": "role",
          "type": "bytes32"
        }
      ],
      "name": "getRoleMemberCount",
      "outputs": [
        {
          "internalType": "uint256",
          "name": "",
          "type": "uint256"
        }
      ],
      "stateMutability": "view",
      "type": "function",
      "constant": true
    },
    {
      "inputs": [
        {
          "internalType": "bytes32",
          "name": "role",
          "type": "bytes32"
        },
        {
          "internalType": "address",
          "name": "account",
          "type": "address"
        }
      ],
      "name": "grantRole",
      "outputs": [],
      "stateMutability": "nonpayable",
      "type": "function"
    },
    {
      "inputs": [
        {
          "internalType": "bytes32",
          "name": "role",
          "type": "bytes32"
        },
        {
          "internalType": "address",
          "name": "account",
          "type": "address"
        }
      ],
      "name": "hasRole",
      "outputs": [
        {
          "internalType": "bool",
          "name": "",
          "type": "bool"
        }
      ],
      "stateMutability": "view",
      "type": "function",
      "constant": true
    },
    {
      "inputs": [
        {
          "internalType": "address",
          "name": "account",
          "type": "address"
        }
      ],
      "name": "isCustodian",
      "outputs": [
        {
          "internalType": "bool",
          "name": "",
          "type": "bool"
        }
      ],
      "stateMutability": "view",
      "type": "function",
      "constant": true
    },
    {
      "inputs": [
        {
          "internalType": "address",
          "name": "account",
          "type": "address"
        }
      ],
      "name": "isCustomer",
      "outputs": [
        {
          "internalType": "bool",
          "name": "",
          "type": "bool"
        }
      ],
      "stateMutability": "view",
      "type": "function",
      "constant": true
    },
    {
      "inputs": [
        {
          "internalType": "address",
          "name": "account",
          "type": "address"
        }
      ],
      "name": "isLaboratory",
      "outputs": [
        {
          "internalType": "bool",
          "name": "",
          "type": "bool"
        }
      ],
      "stateMutability": "view",
      "type": "function",
      "constant": true
    },
    {
      "inputs": [
        {
          "internalType": "address",
          "name": "account",
          "type": "address"
        }
      ],
      "name": "isManufacturer",
      "outputs": [
        {
          "internalType": "bool",
          "name": "",
          "type": "bool"
        }
      ],
      "stateMutability": "view",
      "type": "function",
      "constant": true
    },
    {
      "inputs": [
        {
          "internalType": "address",
          "name": "account",
          "type": "address"
        }
      ],
      "name": "isMiner",
      "outputs": [
        {
          "internalType": "bool",
          "name": "",
          "type": "bool"
        }
      ],
      "stateMutability": "view",
      "type": "function",
      "constant": true
    },
    {
      "inputs": [],
      "name": "owner",
      "outputs": [
        {
          "internalType": "address",
          "name": "",
          "type": "address"
        }
      ],
      "stateMutability": "view",
      "type": "function",
      "constant": true
    },
    {
      "inputs": [],
      "name": "renounceCustodian",
      "outputs": [],
      "stateMutability": "nonpayable",
      "type": "function"
    },
    {
      "inputs": [],
      "name": "renounceCustomer",
      "outputs": [],
      "stateMutability": "nonpayable",
      "type": "function"
    },
    {
      "inputs": [],
      "name": "renounceLaboratory",
      "outputs": [],
      "stateMutability": "nonpayable",
      "type": "function"
    },
    {
      "inputs": [],
      "name": "renounceManufacturer",
      "outputs": [],
      "stateMutability": "nonpayable",
      "type": "function"
    },
    {
      "inputs": [],
      "name": "renounceMiner",
      "outputs": [],
      "stateMutability": "nonpayable",
      "type": "function"
    },
    {
      "inputs": [],
      "name": "renounceOwnership",
      "outputs": [],
      "stateMutability": "nonpayable",
      "type": "function"
    },
    {
      "inputs": [
        {
          "internalType": "bytes32",
          "name": "role",
          "type": "bytes32"
        },
        {
          "internalType": "address",
          "name": "account",
          "type": "address"
        }
      ],
      "name": "renounceRole",
      "outputs": [],
      "stateMutability": "nonpayable",
      "type": "function"
    },
    {
      "inputs": [
        {
          "internalType": "bytes32",
          "name": "role",
          "type": "bytes32"
        },
        {
          "internalType": "address",
          "name": "account",
          "type": "address"
        }
      ],
      "name": "revokeRole",
      "outputs": [],
      "stateMutability": "nonpayable",
      "type": "function"
    },
    {
      "inputs": [
        {
          "internalType": "address",
          "name": "newOwner",
          "type": "address"
        }
      ],
      "name": "transferOwnership",
      "outputs": [],
      "stateMutability": "nonpayable",
      "type": "function"
    },
    {
      "inputs": [],
      "name": "kill",
      "outputs": [],
      "stateMutability": "nonpayable",
      "type": "function"
    },
    {
      "inputs": [
        {
          "internalType": "uint256",
          "name": "_sku",
          "type": "uint256"
        },
        {
          "internalType": "uint256",
          "name": "_upc",
          "type": "uint256"
        },
        {
          "internalType": "address payable",
          "name": "_originMinerID",
          "type": "address"
        },
        {
          "internalType": "string",
          "name": "_originMineName",
          "type": "string"
        },
        {
          "internalType": "string",
          "name": "_originMineInformation",
          "type": "string"
        },
        {
          "internalType": "string",
          "name": "_originMineLatitude",
          "type": "string"
        },
        {
          "internalType": "string",
          "name": "_originMineLongitude",
          "type": "string"
        }
      ],
      "name": "extractEmerald",
      "outputs": [],
      "stateMutability": "nonpayable",
      "type": "function"
    },
    {
      "inputs": [
        {
          "internalType": "uint256",
          "name": "_upc",
          "type": "uint256"
        },
        {
          "internalType": "string",
          "name": "_scaleInfo",
          "type": "string"
        }
      ],
      "name": "scaleEmerald",
      "outputs": [],
      "stateMutability": "nonpayable",
      "type": "function"
    },
    {
      "inputs": [
        {
          "internalType": "uint256",
          "name": "_upc",
          "type": "uint256"
        },
        {
          "internalType": "address",
          "name": "_laboratoryID",
          "type": "address"
        },
        {
          "internalType": "address",
          "name": "_custodianID",
          "type": "address"
        }
      ],
      "name": "packScaledEmerald",
      "outputs": [],
      "stateMutability": "nonpayable",
      "type": "function"
    },
    {
      "inputs": [
        {
          "internalType": "uint256",
          "name": "_upc",
          "type": "uint256"
        }
      ],
      "name": "shipToLaboratory",
      "outputs": [],
      "stateMutability": "nonpayable",
      "type": "function"
    },
    {
      "inputs": [
        {
          "internalType": "uint256",
          "name": "_upc",
          "type": "uint256"
        }
      ],
      "name": "laboratoryReceived",
      "outputs": [],
      "stateMutability": "nonpayable",
      "type": "function"
    },
    {
      "inputs": [
        {
          "internalType": "uint256",
          "name": "_upc",
          "type": "uint256"
        },
        {
          "internalType": "string",
          "name": "_certifiedProperties",
          "type": "string"
        }
      ],
      "name": "certifyEmerald",
      "outputs": [],
      "stateMutability": "nonpayable",
      "type": "function"
    },
    {
      "inputs": [
        {
          "internalType": "uint256",
          "name": "_upc",
          "type": "uint256"
        }
      ],
      "name": "shipToSecureStore",
      "outputs": [],
      "stateMutability": "nonpayable",
      "type": "function"
    },
    {
      "inputs": [
        {
          "internalType": "uint256",
          "name": "_upc",
          "type": "uint256"
        }
      ],
      "name": "SecureStorageReceived",
      "outputs": [],
      "stateMutability": "nonpayable",
      "type": "function"
    },
    {
      "inputs": [
        {
          "internalType": "uint256",
          "name": "_upc",
          "type": "uint256"
        }
      ],
      "name": "StoreEmerald",
      "outputs": [],
      "stateMutability": "nonpayable",
      "type": "function"
    },
    {
      "inputs": [
        {
          "internalType": "uint256",
          "name": "_upc",
          "type": "uint256"
        },
        {
          "internalType": "uint256",
          "name": "_marketPrice",
          "type": "uint256"
        }
      ],
      "name": "registerForSale",
      "outputs": [],
      "stateMutability": "nonpayable",
      "type": "function"
    },
    {
      "inputs": [
        {
          "internalType": "uint256",
          "name": "_upc",
          "type": "uint256"
        }
      ],
      "name": "buyFromMiner",
      "outputs": [],
      "stateMutability": "payable",
      "type": "function",
      "payable": true
    },
    {
      "inputs": [
        {
          "internalType": "uint256",
          "name": "_upc",
          "type": "uint256"
        }
      ],
      "name": "shipToManufacturer",
      "outputs": [],
      "stateMutability": "nonpayable",
      "type": "function"
    },
    {
      "inputs": [
        {
          "internalType": "uint256",
          "name": "_upc",
          "type": "uint256"
        }
      ],
      "name": "receiveFromStorage",
      "outputs": [],
      "stateMutability": "nonpayable",
      "type": "function"
    },
    {
      "inputs": [
        {
          "internalType": "uint256",
          "name": "_upc",
          "type": "uint256"
        },
        {
          "internalType": "string",
          "name": "_manofactureInfo",
          "type": "string"
        }
      ],
      "name": "manufactureEmerald",
      "outputs": [],
      "stateMutability": "nonpayable",
      "type": "function"
    },
    {
      "inputs": [
        {
          "internalType": "uint256",
          "name": "_upc",
          "type": "uint256"
        }
      ],
      "name": "packCutEmerald",
      "outputs": [],
      "stateMutability": "nonpayable",
      "type": "function"
    },
    {
      "inputs": [
        {
          "internalType": "uint256",
          "name": "_upc",
          "type": "uint256"
        },
        {
          "internalType": "uint256",
          "name": "_marketPrice",
          "type": "uint256"
        }
      ],
      "name": "publishEmerald",
      "outputs": [],
      "stateMutability": "nonpayable",
      "type": "function"
    },
    {
      "inputs": [
        {
          "internalType": "uint256",
          "name": "_upc",
          "type": "uint256"
        }
      ],
      "name": "buyFromManufacturer",
      "outputs": [],
      "stateMutability": "payable",
      "type": "function",
      "payable": true
    },
    {
      "inputs": [
        {
          "internalType": "uint256",
          "name": "_upc",
          "type": "uint256"
        }
      ],
      "name": "shipEmeraldToCustomer",
      "outputs": [],
      "stateMutability": "nonpayable",
      "type": "function"
    },
    {
      "inputs": [
        {
          "internalType": "uint256",
          "name": "_upc",
          "type": "uint256"
        }
      ],
      "name": "deliverToCustomer",
      "outputs": [],
      "stateMutability": "nonpayable",
      "type": "function"
    },
    {
      "inputs": [
        {
          "internalType": "uint256",
          "name": "_upc",
          "type": "uint256"
        }
      ],
      "name": "fetchItemBufferOne",
      "outputs": [
        {
          "internalType": "bytes",
          "name": "",
          "type": "bytes"
        }
      ],
      "stateMutability": "view",
      "type": "function",
      "constant": true
    },
    {
      "inputs": [
        {
          "internalType": "uint256",
          "name": "_upc",
          "type": "uint256"
        }
      ],
      "name": "fetchItemBufferTwo",
      "outputs": [
        {
          "internalType": "bytes",
          "name": "",
          "type": "bytes"
        }
      ],
      "stateMutability": "view",
      "type": "function",
      "constant": true
    }
  ],
  "bytecode": "0x60806040523480156200001157600080fd5b5060006200001e62000112565b600080546001600160a01b0319166001600160a01b0383169081178255604051929350917f8be0079c531659141344cd1fd0a4f28419497f9722a3daafe3b4186f6b6457e0908290a3506200007e60006200007862000112565b62000116565b620000893362000126565b6200009960006200007862000112565b620000a43362000155565b620000b460006200007862000112565b620000bf3362000181565b620000cf60006200007862000112565b620000da33620001ad565b620000ea60006200007862000112565b620000f533620001d9565b600160038190556002556200010c60003362000116565b620003a3565b3390565b62000122828262000205565b5050565b620001527fa952726ef2588ad078edf35b066f7c7406e207cb0003bbaba8cb53eba9553e728262000280565b50565b620001527fc9f41f19cd323609a8840e20c19f0688fff7f2c7796dc69350af80f75835f8158262000280565b620001527fe28434228950b641dbbc0178de89daa359a87c6ee0d8399aeace52a98fe902b98262000280565b620001527feefb95e842a3287179d933b4460be539a1d5af11aa8b325bb45c5c8dc92de4ed8262000280565b620001527f288a15c4a15d470e4cd9cad2f113b91206b520c26dbd3dd74627f0c057baa19c8262000280565b60008281526001602090815260409091206200022c91839062004632620002e4821b17901c565b1562000122576200023c62000112565b6001600160a01b0316816001600160a01b0316837f2f8788117e7eff1d82e926ec794901d17c78024a50270940304540a733656f0d60405160405180910390a45050565b600082815260016020526040902060020154620002a790620002a162000112565b62000304565b620001165760405162461bcd60e51b815260040180806020018281038252602f81526020018062005ff3602f913960400191505060405180910390fd5b6000620002fb836001600160a01b0384166200032a565b90505b92915050565b60008281526001602090815260408220620002fb9184906200464762000379821b17901c565b60006200033883836200038b565b6200037057508154600181810184556000848152602080822090930184905584548482528286019093526040902091909155620002fe565b506000620002fe565b6000620002fb836001600160a01b0384165b60009081526001919091016020526040902054151590565b615c4080620003b36000396000f3fe60806040526004361061031a5760003560e01c80637fe21243116101ab578063ad973d74116100f7578063de07f34e11610095578063f3982e5e1161006f578063f3982e5e14610f3d578063f4a588c714610f70578063fe5789dd14610f9a578063fee50d6f14610fc45761031a565b8063de07f34e14610ecb578063f2edcc2014610ee0578063f2fde38b14610f0a5761031a565b8063bb8f5290116100d1578063bb8f529014610e29578063c79445d014610e53578063ca15c87314610e68578063d547741f14610e925761031a565b8063ad973d7414610dcc578063ae46352a14610dff578063b4dc323c14610e145761031a565b806391d1485411610164578063a217fddf1161013e578063a217fddf14610d37578063ac1f27c814610d4c578063ac98e6db14610d76578063acfa50e314610d8b5761031a565b806391d1485414610cbf578063965288b014610cf85780639a11d18314610d0d5761031a565b80637fe2124314610b2e57806382ef5ee514610b4357806385d95b8114610b735780638ba2b46514610ba65780638da5cb5b14610c5e5780639010d07c14610c8f5761031a565b806336568abe1161026a578063613883b111610223578063701b70ac116101fd578063701b70ac14610a8c578063715018a614610abf57806377c4591314610ad457806379e34c1114610afe5761031a565b8063613883b11461077c5780636394f6e6146109d857806366225ff9146109ed5761031a565b806336568abe14610696578063404203b9146106cf578063416451061461070257806341c0e1b51461071f5780635d4bc638146107345780635f8a5afa146107495761031a565b806328fd5e83116102d75780632f2ff15d116102b15780632f2ff15d14610548578063343758a81461058157806334418cdc1461063957806335c80c8c146106635761031a565b806328fd5e83146104335780632a9f9b30146104665780632e301c7e1461051e5761031a565b8063087988c81461031f57806317d4a4911461034b5780631ce5b81c14610392578063204d7923146103af578063248a9ca3146103d65780632770658414610400575b600080fd5b34801561032b57600080fd5b506103496004803603602081101561034257600080fd5b5035610fee565b005b34801561035757600080fd5b5061037e6004803603602081101561036e57600080fd5b50356001600160a01b031661117e565b604080519115158252519081900360200190f35b610349600480360360208110156103a857600080fd5b503561119e565b3480156103bb57600080fd5b506103c46116fc565b60408051918252519081900360200190f35b3480156103e257600080fd5b506103c4600480360360208110156103f957600080fd5b503561170e565b34801561040c57600080fd5b5061037e6004803603602081101561042357600080fd5b50356001600160a01b0316611723565b34801561043f57600080fd5b5061037e6004803603602081101561045657600080fd5b50356001600160a01b031661173d565b34801561047257600080fd5b506103496004803603604081101561048957600080fd5b81359190810190604081016020820135600160201b8111156104aa57600080fd5b8201836020820111156104bc57600080fd5b803590602001918460018302840111600160201b831117156104dd57600080fd5b91908080601f016020809104026020016040519081016040528093929190818152602001838380828437600092019190915250929550611757945050505050565b34801561052a57600080fd5b506103496004803603602081101561054157600080fd5b5035611a3b565b34801561055457600080fd5b506103496004803603604081101561056b57600080fd5b50803590602001356001600160a01b0316611bbc565b34801561058d57600080fd5b50610349600480360360408110156105a457600080fd5b81359190810190604081016020820135600160201b8111156105c557600080fd5b8201836020820111156105d757600080fd5b803590602001918460018302840111600160201b831117156105f857600080fd5b91908080601f016020809104026020016040519081016040528093929190818152602001838380828437600092019190915250929550611c28945050505050565b34801561064557600080fd5b506103496004803603602081101561065c57600080fd5b5035611e7d565b34801561066f57600080fd5b5061037e6004803603602081101561068657600080fd5b50356001600160a01b031661208d565b3480156106a257600080fd5b50610349600480360360408110156106b957600080fd5b50803590602001356001600160a01b03166120a7565b3480156106db57600080fd5b50610349600480360360208110156106f257600080fd5b50356001600160a01b0316612108565b6103496004803603602081101561071857600080fd5b503561215c565b34801561072b57600080fd5b5061034961265b565b34801561074057600080fd5b506103496126d2565b34801561075557600080fd5b506103496004803603602081101561076c57600080fd5b50356001600160a01b03166126dd565b34801561078857600080fd5b50610349600480360360e081101561079f57600080fd5b8135916020810135916001600160a01b036040830135169190810190608081016060820135600160201b8111156107d557600080fd5b8201836020820111156107e757600080fd5b803590602001918460018302840111600160201b8311171561080857600080fd5b91908080601f0160208091040260200160405190810160405280939291908181526020018383808284376000920191909152509295949360208101935035915050600160201b81111561085a57600080fd5b82018360208201111561086c57600080fd5b803590602001918460018302840111600160201b8311171561088d57600080fd5b91908080601f0160208091040260200160405190810160405280939291908181526020018383808284376000920191909152509295949360208101935035915050600160201b8111156108df57600080fd5b8201836020820111156108f157600080fd5b803590602001918460018302840111600160201b8311171561091257600080fd5b91908080601f0160208091040260200160405190810160405280939291908181526020018383808284376000920191909152509295949360208101935035915050600160201b81111561096457600080fd5b82018360208201111561097657600080fd5b803590602001918460018302840111600160201b8311171561099757600080fd5b91908080601f01602080910402602001604051908101604052809392919081815260200183838082843760009201919091525092955061272e945050505050565b3480156109e457600080fd5b506103c4612a51565b3480156109f957600080fd5b50610a1760048036036020811015610a1057600080fd5b5035612a63565b6040805160208082528351818301528351919283929083019185019080838360005b83811015610a51578181015183820152602001610a39565b50505050905090810190601f168015610a7e5780820380516001836020036101000a031916815260200191505b509250505060405180910390f35b348015610a9857600080fd5b5061037e60048036036020811015610aaf57600080fd5b50356001600160a01b0316612ba5565b348015610acb57600080fd5b50610349612bbf565b348015610ae057600080fd5b50610a1760048036036020811015610af757600080fd5b5035612c7d565b348015610b0a57600080fd5b5061034960048036036040811015610b2157600080fd5b5080359060200135612ccd565b348015610b3a57600080fd5b506103c4612ebc565b348015610b4f57600080fd5b5061034960048036036040811015610b6657600080fd5b5080359060200135612ece565b348015610b7f57600080fd5b5061034960048036036020811015610b9657600080fd5b50356001600160a01b0316613116565b348015610bb257600080fd5b5061034960048036036040811015610bc957600080fd5b81359190810190604081016020820135600160201b811115610bea57600080fd5b820183602082011115610bfc57600080fd5b803590602001918460018302840111600160201b83111715610c1d57600080fd5b91908080601f016020809104026020016040519081016040528093929190818152602001838380828437600092019190915250929550613176945050505050565b348015610c6a57600080fd5b50610c73613423565b604080516001600160a01b039092168252519081900360200190f35b348015610c9b57600080fd5b50610c7360048036036040811015610cb257600080fd5b5080359060200135613432565b348015610ccb57600080fd5b5061037e60048036036040811015610ce257600080fd5b50803590602001356001600160a01b0316613451565b348015610d0457600080fd5b506103c4613469565b348015610d1957600080fd5b5061034960048036036020811015610d3057600080fd5b503561347b565b348015610d4357600080fd5b506103c4613656565b348015610d5857600080fd5b5061034960048036036020811015610d6f57600080fd5b503561365b565b348015610d8257600080fd5b5061034961386c565b348015610d9757600080fd5b5061034960048036036060811015610dae57600080fd5b508035906001600160a01b0360208201358116916040013516613875565b348015610dd857600080fd5b5061034960048036036020811015610def57600080fd5b50356001600160a01b0316613b30565b348015610e0b57600080fd5b50610349613b8f565b348015610e2057600080fd5b50610349613b98565b348015610e3557600080fd5b5061034960048036036020811015610e4c57600080fd5b5035613ba1565b348015610e5f57600080fd5b506103c4613dc1565b348015610e7457600080fd5b506103c460048036036020811015610e8b57600080fd5b5035613dd3565b348015610e9e57600080fd5b5061034960048036036040811015610eb557600080fd5b50803590602001356001600160a01b0316613dea565b348015610ed757600080fd5b50610349613e43565b348015610eec57600080fd5b5061034960048036036020811015610f0357600080fd5b5035613e4c565b348015610f1657600080fd5b5061034960048036036020811015610f2d57600080fd5b50356001600160a01b0316613fce565b348015610f4957600080fd5b5061034960048036036020811015610f6057600080fd5b50356001600160a01b03166140e2565b348015610f7c57600080fd5b5061034960048036036020811015610f9357600080fd5b50356140fd565b348015610fa657600080fd5b5061034960048036036020811015610fbd57600080fd5b5035614281565b348015610fd057600080fd5b5061034960048036036020811015610fe757600080fd5b5035614412565b8060116000828152600460208181526040928390205483516310efbeff60e21b815293516001600160a01b03909116936343befbfc93818101939291829003018186803b15801561103e57600080fd5b505afa158015611052573d6000803e3d6000fd5b505050506040513d602081101561106857600080fd5b5051601281111561107557fe5b1461107f57600080fd5b6110883361173d565b6110d5576040805162461bcd60e51b815260206004820152601960248201527821b0b63632b91034b9903737ba10309031bab9ba37b6b2b91760391b604482015290519081900360640190fd5b600082815260046020819052604091829020549151630934f60760e41b81526001600160a01b039092169163934f6070916012910180828152602001915050600060405180830381600087803b15801561112e57600080fd5b505af1158015611142573d6000803e3d6000fd5b50506040805185815290517ffcc296b8bdd64e3f1d1faadef50cb2d6550f645316330fe57cb1dd7e0612ead09350908190036020019150a15050565b6000611198600080516020615acc83398151915283613451565b92915050565b8060096000828152600460208181526040928390205483516310efbeff60e21b815293516001600160a01b03909116936343befbfc93818101939291829003018186803b1580156111ee57600080fd5b505afa158015611202573d6000803e3d6000fd5b505050506040513d602081101561121857600080fd5b5051601281111561122557fe5b1461122f57600080fd5b600082815260046020818152604092839020548351632bd834e360e21b815293516001600160a01b039091169363af60d38c93818101939291829003018186803b15801561127c57600080fd5b505afa158015611290573d6000803e3d6000fd5b505050506040513d60208110156112a657600080fd5b5051348111156112f7576040805162461bcd60e51b8152602060048201526017602482015276139bdd08195b9bdd59da1d081c185a5908185b5bdd5b9d604a1b604482015290519081900360640190fd5b826113013361117e565b611340576040805162461bcd60e51b815260206004820152601d6024820152600080516020615b0c833981519152604482015290519081900360640190fd5b6000848152600460208181526040808420548151631a8fa05b60e31b815291516001600160a01b039091169363d47d02d8938382019390929190829003018186803b15801561138e57600080fd5b505afa1580156113a2573d6000803e3d6000fd5b505050506040513d60208110156113b857600080fd5b5051600086815260046020818152604092839020548351632bd834e360e21b815293516001600160a01b03958616959091169363af60d38c93818101939291829003018186803b15801561140b57600080fd5b505afa15801561141f573d6000803e3d6000fd5b505050506040513d602081101561143557600080fd5b5051604051600081818185875af1925050503d8060008114611473576040519150601f19603f3d011682016040523d82523d6000602084013e611478565b606091505b50509050806114c0576040805162461bcd60e51b815260206004820152600f60248201526e151c985b9cd9995c8819985a5b1959608a1b604482015290519081900360640190fd5b6000858152600460208190526040808320548151630227e61b60e01b8152339381019390935290516001600160a01b0390911692630227e61b926024808201939182900301818387803b15801561151657600080fd5b505af115801561152a573d6000803e3d6000fd5b505050600086815260046020819052604080832054815163f006167560e01b8152339381019390935290516001600160a01b03909116935063f00616759260248084019391929182900301818387803b15801561158657600080fd5b505af115801561159a573d6000803e3d6000fd5b505050600086815260046020819052604091829020549151630934f60760e41b81526001600160a01b03909216925063934f607091600a910180828152602001915050600060405180830381600087803b1580156115f757600080fd5b505af115801561160b573d6000803e3d6000fd5b50506040805188815290517f92f64ca637d023f354075a4be751b169c1a8a9ccb6d33cdd0cb35205439957279350908190036020019150a1506000818152600460208181526040808420548151632bd834e360e21b815291516001600160a01b039091169363af60d38c938382019390929190829003018186803b15801561169257600080fd5b505afa1580156116a6573d6000803e3d6000fd5b505050506040513d60208110156116bc57600080fd5b50516040519091503482900390339082156108fc029083906000818181858888f193505050501580156116f3573d6000803e3d6000fd5b50505050505050565b600080516020615b7c83398151915281565b60009081526001602052604090206002015490565b6000611198600080516020615b5c83398151915283613451565b6000611198600080516020615b7c83398151915283613451565b8160046000828152600460208181526040928390205483516310efbeff60e21b815293516001600160a01b03909116936343befbfc93818101939291829003018186803b1580156117a757600080fd5b505afa1580156117bb573d6000803e3d6000fd5b505050506040513d60208110156117d157600080fd5b505160128111156117de57fe5b146117e857600080fd5b600083815260046020818152604092839020548351631b63398f60e21b815293516001600160a01b0390911693636d8ce63c93818101939291829003018186803b15801561183557600080fd5b505afa158015611849573d6000803e3d6000fd5b505050506040513d602081101561185f57600080fd5b5051336001600160a01b0382161461187657600080fd5b61187f33611723565b6118be576040805162461bcd60e51b815260206004820152601b6024820152600080516020615bbc833981519152604482015290519081900360640190fd5b600084815260046020818152604080842054905163f6f7b34360e01b81529283018281528751602485015287516001600160a01b039092169463f6f7b34394899492938493604490920192918601918190849084905b8381101561192c578181015183820152602001611914565b50505050905090810190601f1680156119595780820380516001836020036101000a031916815260200191505b5092505050600060405180830381600087803b15801561197857600080fd5b505af115801561198c573d6000803e3d6000fd5b505050600085815260046020819052604091829020549151630934f60760e41b81526001600160a01b03909216925063934f6070916005910180828152602001915050600060405180830381600087803b1580156119e957600080fd5b505af11580156119fd573d6000803e3d6000fd5b50506040805187815290517f4e8c48948db98a1fea8df39d874e32084414a172079b74467a267b66050069b59350908190036020019150a150505050565b8060106000828152600460208181526040928390205483516310efbeff60e21b815293516001600160a01b03909116936343befbfc93818101939291829003018186803b158015611a8b57600080fd5b505afa158015611a9f573d6000803e3d6000fd5b505050506040513d6020811015611ab557600080fd5b50516012811115611ac257fe5b14611acc57600080fd5b611ad53361117e565b611b14576040805162461bcd60e51b815260206004820152601d6024820152600080516020615b0c833981519152604482015290519081900360640190fd5b600082815260046020819052604091829020549151630934f60760e41b81526001600160a01b039092169163934f6070916011910180828152602001915050600060405180830381600087803b158015611b6d57600080fd5b505af1158015611b81573d6000803e3d6000fd5b50506040805185815290517ea193261577ee619e49c2b31a1ea8cff95fb137044fb6ae297eda97430b8b7c9350908190036020019150a15050565b600082815260016020526040902060020154611bdf90611bda61465c565b613451565b611c1a5760405162461bcd60e51b815260040180806020018281038252602f815260200180615a77602f913960400191505060405180910390fd5b611c248282614660565b5050565b81600c6000828152600460208181526040928390205483516310efbeff60e21b815293516001600160a01b03909116936343befbfc93818101939291829003018186803b158015611c7857600080fd5b505afa158015611c8c573d6000803e3d6000fd5b505050506040513d6020811015611ca257600080fd5b50516012811115611caf57fe5b14611cb957600080fd5b611cc23361117e565b611d01576040805162461bcd60e51b815260206004820152601d6024820152600080516020615b0c833981519152604482015290519081900360640190fd5b6000838152600460208181526040808420549051635dfc7bc760e11b81529283018281528651602485015286516001600160a01b039092169463bbf8f78e94889492938493604490920192918601918190849084905b83811015611d6f578181015183820152602001611d57565b50505050905090810190601f168015611d9c5780820380516001836020036101000a031916815260200191505b5092505050600060405180830381600087803b158015611dbb57600080fd5b505af1158015611dcf573d6000803e3d6000fd5b505050600084815260046020819052604091829020549151630934f60760e41b81526001600160a01b03909216925063934f607091600d910180828152602001915050600060405180830381600087803b158015611e2c57600080fd5b505af1158015611e40573d6000803e3d6000fd5b50506040805186815290517fd29d8a68ca7c8c74be5579719d445aabfe230ed6e6a83aff475a663500eb76099350908190036020019150a1505050565b8060036000828152600460208181526040928390205483516310efbeff60e21b815293516001600160a01b03909116936343befbfc93818101939291829003018186803b158015611ecd57600080fd5b505afa158015611ee1573d6000803e3d6000fd5b505050506040513d6020811015611ef757600080fd5b50516012811115611f0457fe5b14611f0e57600080fd5b600082815260046020818152604092839020548351631b63398f60e21b815293516001600160a01b0390911693636d8ce63c93818101939291829003018186803b158015611f5b57600080fd5b505afa158015611f6f573d6000803e3d6000fd5b505050506040513d6020811015611f8557600080fd5b5051336001600160a01b03821614611f9c57600080fd5b611fa533611723565b611fe4576040805162461bcd60e51b815260206004820152601b6024820152600080516020615bbc833981519152604482015290519081900360640190fd5b600083815260046020819052604091829020549151630934f60760e41b81526001600160a01b039092169163934f60709190810180828152602001915050600060405180830381600087803b15801561203c57600080fd5b505af1158015612050573d6000803e3d6000fd5b50506040805186815290517f86d4ba21bdad444b59beb1ce9c3ef6957c1e9d7183a2126a1edbdb2bbf29e9729350908190036020019150a1505050565b6000611198600080516020615aec83398151915283613451565b6120af61465c565b6001600160a01b0316816001600160a01b0316146120fe5760405162461bcd60e51b815260040180806020018281038252602f815260200180615bdc602f913960400191505060405180910390fd5b611c2482826146c9565b61211133611723565b612150576040805162461bcd60e51b815260206004820152601b6024820152600080516020615bbc833981519152604482015290519081900360640190fd5b61215981614732565b50565b80600f6000828152600460208181526040928390205483516310efbeff60e21b815293516001600160a01b03909116936343befbfc93818101939291829003018186803b1580156121ac57600080fd5b505afa1580156121c0573d6000803e3d6000fd5b505050506040513d60208110156121d657600080fd5b505160128111156121e357fe5b146121ed57600080fd5b600082815260046020818152604092839020548351632bd834e360e21b815293516001600160a01b039091169363af60d38c93818101939291829003018186803b15801561223a57600080fd5b505afa15801561224e573d6000803e3d6000fd5b505050506040513d602081101561226457600080fd5b5051348111156122b5576040805162461bcd60e51b8152602060048201526017602482015276139bdd08195b9bdd59da1d081c185a5908185b5bdd5b9d604a1b604482015290519081900360640190fd5b826122bf3361173d565b61230c576040805162461bcd60e51b815260206004820152601960248201527821b0b63632b91034b9903737ba10309031bab9ba37b6b2b91760391b604482015290519081900360640190fd5b600084815260046020819052604091829020549151630934f60760e41b81526001600160a01b039092169163934f6070916010910180828152602001915050600060405180830381600087803b15801561236557600080fd5b505af1158015612379573d6000803e3d6000fd5b50505060008581526004602081815260408084205481516318672aad60e31b815291519495506001600160a01b03169363c3395568938281019392829003018186803b1580156123c857600080fd5b505afa1580156123dc573d6000803e3d6000fd5b505050506040513d60208110156123f257600080fd5b5051600086815260046020818152604092839020548351632bd834e360e21b815293516001600160a01b03958616959091169363af60d38c93818101939291829003018186803b15801561244557600080fd5b505afa158015612459573d6000803e3d6000fd5b505050506040513d602081101561246f57600080fd5b5051604051600081818185875af1925050503d80600081146124ad576040519150601f19603f3d011682016040523d82523d6000602084013e6124b2565b606091505b50509050806124fa576040805162461bcd60e51b815260206004820152600f60248201526e151c985b9cd9995c8819985a5b1959608a1b604482015290519081900360640190fd5b600085815260046020819052604080832054815163d057eba960e01b8152339381019390935290516001600160a01b039091169263d057eba9926024808201939182900301818387803b15801561255057600080fd5b505af1158015612564573d6000803e3d6000fd5b5050506000868152600460208190526040808320548151630227e61b60e01b8152339381019390935290516001600160a01b039091169350630227e61b9260248084019391929182900301818387803b1580156125c057600080fd5b505af11580156125d4573d6000803e3d6000fd5b50506040805188815290517f4ef53258f94ddbc1ea550eda541d9d69e07d5fed0adf283093c58b494816276d9350908190036020019150a1506000818152600460208181526040808420548151632bd834e360e21b815291516001600160a01b039091169363af60d38c938382019390929190829003018186803b15801561169257600080fd5b61266361465c565b6001600160a01b0316612674613423565b6001600160a01b0316146126cf576040805162461bcd60e51b815260206004820181905260248201527f4f776e61626c653a2063616c6c6572206973206e6f7420746865206f776e6572604482015290519081900360640190fd5b33ff5b6126db3361474a565b565b6126e63361117e565b612725576040805162461bcd60e51b815260206004820152601d6024820152600080516020615b0c833981519152604482015290519081900360640190fd5b61215981614762565b61273733612ba5565b61274057600080fd5b600060405161274e906149de565b604051809103906000f08015801561276a573d6000803e3d6000fd5b509050806001600160a01b0316639496a259898989898989896040518863ffffffff1660e01b815260040180888152602001878152602001866001600160a01b0316815260200180602001806020018060200180602001858103855289818151815260200191508051906020019080838360005b838110156127f65781810151838201526020016127de565b50505050905090810190601f1680156128235780820380516001836020036101000a031916815260200191505b5085810384528851815288516020918201918a019080838360005b8381101561285657818101518382015260200161283e565b50505050905090810190601f1680156128835780820380516001836020036101000a031916815260200191505b50858103835287518152875160209182019189019080838360005b838110156128b657818101518382015260200161289e565b50505050905090810190601f1680156128e35780820380516001836020036101000a031916815260200191505b50858103825286518152865160209182019188019080838360005b838110156129165781810151838201526020016128fe565b50505050905090810190601f1680156129435780820380516001836020036101000a031916815260200191505b509b505050505050505050505050600060405180830381600087803b15801561296b57600080fd5b505af115801561297f573d6000803e3d6000fd5b5050604051630934f60760e41b81526001600160a01b038416925063934f6070915060009060040180828152602001915050600060405180830381600087803b1580156129cb57600080fd5b505af11580156129df573d6000803e3d6000fd5b50505060008881526004602090815260409182902080546001600160a01b0319166001600160a01b03861617905560038054600101905581518a815291517f4229d50c63dbdc5551dd68e0a9879b01ac250cb31feaeba7588533462e6c7aaa9350918290030190a15050505050505050565b600080516020615b9c83398151915281565b6000818152600460208190526040808320548151630632e25f60e21b815291516060946001600160a01b03909216936318cb897c9380820193929190829003018186803b158015612ab357600080fd5b505afa158015612ac7573d6000803e3d6000fd5b505050506040513d6000823e601f3d908101601f191682016040526020811015612af057600080fd5b8101908080516040519392919084600160201b821115612b0f57600080fd5b908301906020820185811115612b2457600080fd5b8251600160201b811182820188101715612b3d57600080fd5b82525081516020918201929091019080838360005b83811015612b6a578181015183820152602001612b52565b50505050905090810190601f168015612b975780820380516001836020036101000a031916815260200191505b506040525050509050919050565b6000611198600080516020615b9c83398151915283613451565b612bc761465c565b6001600160a01b0316612bd8613423565b6001600160a01b031614612c33576040805162461bcd60e51b815260206004820181905260248201527f4f776e61626c653a2063616c6c6572206973206e6f7420746865206f776e6572604482015290519081900360640190fd5b600080546040516001600160a01b03909116907f8be0079c531659141344cd1fd0a4f28419497f9722a3daafe3b4186f6b6457e0908390a3600080546001600160a01b0319169055565b600081815260046020819052604080832054815163606d498b60e11b815291516060946001600160a01b039092169363c0da93169380820193929190829003018186803b158015612ab357600080fd5b81600e6000828152600460208181526040928390205483516310efbeff60e21b815293516001600160a01b03909116936343befbfc93818101939291829003018186803b158015612d1d57600080fd5b505afa158015612d31573d6000803e3d6000fd5b505050506040513d6020811015612d4757600080fd5b50516012811115612d5457fe5b14612d5e57600080fd5b612d673361117e565b612da6576040805162461bcd60e51b815260206004820152601d6024820152600080516020615b0c833981519152604482015290519081900360640190fd5b6000838152600460208190526040808320548151637400541760e11b815292830186905290516001600160a01b039091169263e800a82e926024808201939182900301818387803b158015612dfa57600080fd5b505af1158015612e0e573d6000803e3d6000fd5b505050600084815260046020819052604091829020549151630934f60760e41b81526001600160a01b03909216925063934f607091600f910180828152602001915050600060405180830381600087803b158015612e6b57600080fd5b505af1158015612e7f573d6000803e3d6000fd5b50506040805186815290517f376bc3664e237a897179c3c1ddc5b8ef6318ad79c1b7819a305b0e23263f868d9350908190036020019150a1505050565b600080516020615b5c83398151915281565b8160086000828152600460208181526040928390205483516310efbeff60e21b815293516001600160a01b03909116936343befbfc93818101939291829003018186803b158015612f1e57600080fd5b505afa158015612f32573d6000803e3d6000fd5b505050506040513d6020811015612f4857600080fd5b50516012811115612f5557fe5b14612f5f57600080fd5b6000838152600460208181526040928390205483516306b0153f60e41b815293516001600160a01b0390911693636b0153f093818101939291829003018186803b158015612fac57600080fd5b505afa158015612fc0573d6000803e3d6000fd5b505050506040513d6020811015612fd657600080fd5b5051336001600160a01b03821614612fed57600080fd5b612ff633612ba5565b612fff57600080fd5b6000848152600460208190526040808320548151637400541760e11b815292830187905290516001600160a01b039091169263e800a82e926024808201939182900301818387803b15801561305357600080fd5b505af1158015613067573d6000803e3d6000fd5b505050600085815260046020819052604091829020549151630934f60760e41b81526001600160a01b03909216925063934f6070916009910180828152602001915050600060405180830381600087803b1580156130c457600080fd5b505af11580156130d8573d6000803e3d6000fd5b50506040805187815290517fa96ae0fc3224ebd79eebfe54bd130cc9cb94416cddd1f2386115e00b725324689350908190036020019150a150505050565b61311f3361208d565b61316d576040805162461bcd60e51b815260206004820152601a60248201527921b0b63632b91034b9903737ba10309031bab9ba37b234b0b71760311b604482015290519081900360640190fd5b6121598161477a565b81600080828152600460208181526040928390205483516310efbeff60e21b815293516001600160a01b03909116936343befbfc93818101939291829003018186803b1580156131c557600080fd5b505afa1580156131d9573d6000803e3d6000fd5b505050506040513d60208110156131ef57600080fd5b505160128111156131fc57fe5b1461320657600080fd5b6000838152600460208181526040928390205483516306b0153f60e41b815293516001600160a01b0390911693636b0153f093818101939291829003018186803b15801561325357600080fd5b505afa158015613267573d6000803e3d6000fd5b505050506040513d602081101561327d57600080fd5b5051336001600160a01b0382161461329457600080fd5b61329d33612ba5565b6132a657600080fd5b600084815260046020818152604080842054905163244f0e8b60e21b81529283018281528751602485015287516001600160a01b039092169463913c3a2c94899492938493604490920192918601918190849084905b838110156133145781810151838201526020016132fc565b50505050905090810190601f1680156133415780820380516001836020036101000a031916815260200191505b5092505050600060405180830381600087803b15801561336057600080fd5b505af1158015613374573d6000803e3d6000fd5b505050600085815260046020819052604091829020549151630934f60760e41b81526001600160a01b03909216925063934f6070916001910180828152602001915050600060405180830381600087803b1580156133d157600080fd5b505af11580156133e5573d6000803e3d6000fd5b50506040805187815290517f7ff0145529d4114f4463081dc51c0f541adae9b04f3f72598fa8c979d50a64ea9350908190036020019150a150505050565b6000546001600160a01b031690565b600082815260016020526040812061344a9083614792565b9392505050565b600082815260016020526040812061344a9083614647565b600080516020615acc83398151915281565b8060026000828152600460208181526040928390205483516310efbeff60e21b815293516001600160a01b03909116936343befbfc93818101939291829003018186803b1580156134cb57600080fd5b505afa1580156134df573d6000803e3d6000fd5b505050506040513d60208110156134f557600080fd5b5051601281111561350257fe5b1461350c57600080fd5b6000828152600460208181526040928390205483516306b0153f60e41b815293516001600160a01b0390911693636b0153f093818101939291829003018186803b15801561355957600080fd5b505afa15801561356d573d6000803e3d6000fd5b505050506040513d602081101561358357600080fd5b5051336001600160a01b0382161461359a57600080fd5b6135a333612ba5565b6135ac57600080fd5b600083815260046020819052604091829020549151630934f60760e41b81526001600160a01b039092169163934f6070916003910180828152602001915050600060405180830381600087803b15801561360557600080fd5b505af1158015613619573d6000803e3d6000fd5b50506040805186815290517f7b14d24fbd5b84854b9cff7c14059e2e6cef50d183cd227564b5c122bd7f01149350908190036020019150a1505050565b600081565b8060056000828152600460208181526040928390205483516310efbeff60e21b815293516001600160a01b03909116936343befbfc93818101939291829003018186803b1580156136ab57600080fd5b505afa1580156136bf573d6000803e3d6000fd5b505050506040513d60208110156136d557600080fd5b505160128111156136e257fe5b146136ec57600080fd5b600082815260046020818152604092839020548351631b63398f60e21b815293516001600160a01b0390911693636d8ce63c93818101939291829003018186803b15801561373957600080fd5b505afa15801561374d573d6000803e3d6000fd5b505050506040513d602081101561376357600080fd5b5051336001600160a01b0382161461377a57600080fd5b61378333611723565b6137c2576040805162461bcd60e51b815260206004820152601b6024820152600080516020615bbc833981519152604482015290519081900360640190fd5b600083815260046020819052604091829020549151630934f60760e41b81526001600160a01b039092169163934f6070916006910180828152602001915050600060405180830381600087803b15801561381b57600080fd5b505af115801561382f573d6000803e3d6000fd5b50506040805186815290517f729452ead7b4677dc5dfd83eb1ef913235bb47c841006a0bfe0e471361d9b25a9350908190036020019150a1505050565b6126db3361479e565b8260016000828152600460208181526040928390205483516310efbeff60e21b815293516001600160a01b03909116936343befbfc93818101939291829003018186803b1580156138c557600080fd5b505afa1580156138d9573d6000803e3d6000fd5b505050506040513d60208110156138ef57600080fd5b505160128111156138fc57fe5b1461390657600080fd5b6000848152600460208181526040928390205483516306b0153f60e41b815293516001600160a01b0390911693636b0153f093818101939291829003018186803b15801561395357600080fd5b505afa158015613967573d6000803e3d6000fd5b505050506040513d602081101561397d57600080fd5b5051336001600160a01b0382161461399457600080fd5b61399d33612ba5565b6139a657600080fd5b600085815260046020819052604080832054815163cbaf1bfb60e01b81526001600160a01b0389811694820194909452915192169263cbaf1bfb9260248084019382900301818387803b1580156139fc57600080fd5b505af1158015613a10573d6000803e3d6000fd5b5050506000868152600460208190526040808320548151630a48eb9760e01b81526001600160a01b0389811694820194909452915192169350630a48eb9792602480830193919282900301818387803b158015613a6c57600080fd5b505af1158015613a80573d6000803e3d6000fd5b505050600086815260046020819052604091829020549151630934f60760e41b81526001600160a01b03909216925063934f6070916002910180828152602001915050600060405180830381600087803b158015613add57600080fd5b505af1158015613af1573d6000803e3d6000fd5b50506040805188815290517fa2064f0effc5e80d5e28029364cf9747d971c009f89b41ef00f9cabc7f99f19d9350908190036020019150a15050505050565b613b393361173d565b613b86576040805162461bcd60e51b815260206004820152601960248201527821b0b63632b91034b9903737ba10309031bab9ba37b6b2b91760391b604482015290519081900360640190fd5b612159816147b6565b6126db336147ce565b6126db336147e6565b8060066000828152600460208181526040928390205483516310efbeff60e21b815293516001600160a01b03909116936343befbfc93818101939291829003018186803b158015613bf157600080fd5b505afa158015613c05573d6000803e3d6000fd5b505050506040513d6020811015613c1b57600080fd5b50516012811115613c2857fe5b14613c3257600080fd5b6000828152600460208181526040928390205483516303fec3f760e51b815293516001600160a01b0390911693637fd87ee093818101939291829003018186803b158015613c7f57600080fd5b505afa158015613c93573d6000803e3d6000fd5b505050506040513d6020811015613ca957600080fd5b5051336001600160a01b03821614613cc057600080fd5b613cc93361208d565b613d17576040805162461bcd60e51b815260206004820152601a60248201527921b0b63632b91034b9903737ba10309031bab9ba37b234b0b71760311b604482015290519081900360640190fd5b600083815260046020819052604091829020549151630934f60760e41b81526001600160a01b039092169163934f6070916007910180828152602001915050600060405180830381600087803b158015613d7057600080fd5b505af1158015613d84573d6000803e3d6000fd5b50506040805186815290517fe0248fb10e8bac3feae3067ac136da09c137555ae8ea98ebc00f877ec8eceec89350908190036020019150a1505050565b600080516020615aec83398151915281565b6000818152600160205260408120611198906147fe565b600082815260016020526040902060020154613e0890611bda61465c565b6120fe5760405162461bcd60e51b8152600401808060200182810382526030815260200180615b2c6030913960400191505060405180910390fd5b6126db33614809565b80600b6000828152600460208181526040928390205483516310efbeff60e21b815293516001600160a01b03909116936343befbfc93818101939291829003018186803b158015613e9c57600080fd5b505afa158015613eb0573d6000803e3d6000fd5b505050506040513d6020811015613ec657600080fd5b50516012811115613ed357fe5b14613edd57600080fd5b613ee63361117e565b613f25576040805162461bcd60e51b815260206004820152601d6024820152600080516020615b0c833981519152604482015290519081900360640190fd5b600082815260046020819052604091829020549151630934f60760e41b81526001600160a01b039092169163934f607091600c910180828152602001915050600060405180830381600087803b158015613f7e57600080fd5b505af1158015613f92573d6000803e3d6000fd5b50506040805185815290517f87bea2641566ed387ce22c7eeb7149bf5cca2aeef1183c7bed5ac77424d6bce69350908190036020019150a15050565b613fd661465c565b6001600160a01b0316613fe7613423565b6001600160a01b031614614042576040805162461bcd60e51b815260206004820181905260248201527f4f776e61626c653a2063616c6c6572206973206e6f7420746865206f776e6572604482015290519081900360640190fd5b6001600160a01b0381166140875760405162461bcd60e51b8152600401808060200182810382526026815260200180615aa66026913960400191505060405180910390fd5b600080546040516001600160a01b03808516939216917f8be0079c531659141344cd1fd0a4f28419497f9722a3daafe3b4186f6b6457e091a3600080546001600160a01b0319166001600160a01b0392909216919091179055565b6140eb33612ba5565b6140f457600080fd5b61215981614821565b80600d6000828152600460208181526040928390205483516310efbeff60e21b815293516001600160a01b03909116936343befbfc93818101939291829003018186803b15801561414d57600080fd5b505afa158015614161573d6000803e3d6000fd5b505050506040513d602081101561417757600080fd5b5051601281111561418457fe5b1461418e57600080fd5b6141973361117e565b6141d6576040805162461bcd60e51b815260206004820152601d6024820152600080516020615b0c833981519152604482015290519081900360640190fd5b600082815260046020819052604091829020549151630934f60760e41b81526001600160a01b039092169163934f607091600e910180828152602001915050600060405180830381600087803b15801561422f57600080fd5b505af1158015614243573d6000803e3d6000fd5b505060025460408051918252517f37f2ca69e5ed18a5eefad38cfa64627ccc4f8fc353ff95164b86ff05b4adecf19350908190036020019150a15050565b80600a6000828152600460208181526040928390205483516310efbeff60e21b815293516001600160a01b03909116936343befbfc93818101939291829003018186803b1580156142d157600080fd5b505afa1580156142e5573d6000803e3d6000fd5b505050506040513d60208110156142fb57600080fd5b5051601281111561430857fe5b1461431257600080fd5b61431b3361208d565b614369576040805162461bcd60e51b815260206004820152601a60248201527921b0b63632b91034b9903737ba10309031bab9ba37b234b0b71760311b604482015290519081900360640190fd5b600082815260046020819052604091829020549151630934f60760e41b81526001600160a01b039092169163934f607091600b910180828152602001915050600060405180830381600087803b1580156143c257600080fd5b505af11580156143d6573d6000803e3d6000fd5b50506040805185815290517f747d6658cf85694c84b5e18d38c89b08e414c1ed0f5bf76379135634ce8e489c9350908190036020019150a15050565b8060076000828152600460208181526040928390205483516310efbeff60e21b815293516001600160a01b03909116936343befbfc93818101939291829003018186803b15801561446257600080fd5b505afa158015614476573d6000803e3d6000fd5b505050506040513d602081101561448c57600080fd5b5051601281111561449957fe5b146144a357600080fd5b6000828152600460208181526040928390205483516303fec3f760e51b815293516001600160a01b0390911693637fd87ee093818101939291829003018186803b1580156144f057600080fd5b505afa158015614504573d6000803e3d6000fd5b505050506040513d602081101561451a57600080fd5b5051336001600160a01b0382161461453157600080fd5b61453a3361208d565b614588576040805162461bcd60e51b815260206004820152601a60248201527921b0b63632b91034b9903737ba10309031bab9ba37b234b0b71760311b604482015290519081900360640190fd5b600083815260046020819052604091829020549151630934f60760e41b81526001600160a01b039092169163934f6070916008910180828152602001915050600060405180830381600087803b1580156145e157600080fd5b505af11580156145f5573d6000803e3d6000fd5b50506040805186815290517fc6d8c0af6d21f291e7c359603aa97e0ed500f04db6e983b9fce75a91c6b8da6b9350908190036020019150a1505050565b600061344a836001600160a01b038416614839565b600061344a836001600160a01b038416614883565b3390565b60008281526001602052604090206146789082614632565b15611c245761468561465c565b6001600160a01b0316816001600160a01b0316837f2f8788117e7eff1d82e926ec794901d17c78024a50270940304540a733656f0d60405160405180910390a45050565b60008281526001602052604090206146e1908261489b565b15611c24576146ee61465c565b6001600160a01b0316816001600160a01b0316837ff6391f5c32d9c69d2a47ea670b442974b53935d1edc7fd64eb21e047a839171b60405160405180910390a45050565b612159600080516020615b5c83398151915282611bbc565b612159600080516020615aec83398151915282613dea565b612159600080516020615acc83398151915282611bbc565b612159600080516020615aec83398151915282611bbc565b600061344a83836148b0565b612159600080516020615b7c83398151915282613dea565b612159600080516020615b7c83398151915282611bbc565b612159600080516020615b9c83398151915282613dea565b612159600080516020615b5c83398151915282613dea565b600061119882614914565b612159600080516020615acc83398151915282613dea565b612159600080516020615b9c83398151915282611bbc565b60006148458383614883565b61487b57508154600181810184556000848152602080822090930184905584548482528286019093526040902091909155611198565b506000611198565b60009081526001919091016020526040902054151590565b600061344a836001600160a01b038416614918565b815460009082106148f25760405162461bcd60e51b8152600401808060200182810382526022815260200180615a556022913960400191505060405180910390fd5b82600001828154811061490157fe5b9060005260206000200154905092915050565b5490565b600081815260018301602052604081205480156149d4578354600019808301919081019060009087908390811061494b57fe5b906000526020600020015490508087600001848154811061496857fe5b60009182526020808320909101929092558281526001898101909252604090209084019055865487908061499857fe5b60019003818190600052602060002001600090559055866001016000878152602001908152602001600020600090556001945050505050611198565b6000915050611198565b611069806149ec8339019056fe608060405234801561001057600080fd5b50611049806100206000396000f3fe608060405234801561001057600080fd5b50600436106101c45760003560e01c8063934f6070116100f9578063cbaf1bfb11610097578063d5ae93f811610071578063d5ae93f81461075e578063e800a82e14610766578063f006167514610783578063f6f7b343146107a9576101c4565b8063cbaf1bfb1461070a578063d057eba914610730578063d47d02d814610756576101c4565b8063bbf8f78e116100d3578063bbf8f78e1461064e578063c0da9316146106f2578063c3395568146106fa578063c9368b2014610702576101c4565b8063934f6070146103d75780639496a259146103f7578063af60d38c14610646576101c4565b80636ababa64116101665780636d8ce63c116101405780636d8ce63c1461031b57806374442722146103235780637fd87ee01461032b578063913c3a2c14610333576101c4565b80636ababa64146102e75780636b0153f0146102ef5780636d36dbbb14610313576101c4565b806318cb897c116101a257806318cb897c146102945780631caa734f1461029c5780631e446db5146102b657806343befbfc146102be576101c4565b80630227e61b146101c95780630a48eb97146101f1578063180b96ab14610217575b600080fd5b6101ef600480360360208110156101df57600080fd5b50356001600160a01b031661084d565b005b6101ef6004803603602081101561020757600080fd5b50356001600160a01b031661086f565b61021f610891565b6040805160208082528351818301528351919283929083019185019080838360005b83811015610259578181015183820152602001610241565b50505050905090810190601f1680156102865780820380516001836020036101000a031916815260200191505b509250505060405180910390f35b61021f610927565b6102a46109ef565b60408051918252519081900360200190f35b61021f6109f5565b6102c6610a56565b604051808260128111156102d657fe5b815260200191505060405180910390f35b61021f610a5f565b6102f7610ac0565b604080516001600160a01b039092168252519081900360200190f35b6102f7610acf565b6102f7610ade565b6102a4610aed565b6102f7610af3565b6101ef6004803603602081101561034957600080fd5b810190602081018135600160201b81111561036357600080fd5b82018360208201111561037557600080fd5b803590602001918460018302840111600160201b8311171561039657600080fd5b91908080601f016020809104026020016040519081016040528093929190818152602001838380828437600092019190915250929550610b02945050505050565b6101ef600480360360208110156103ed57600080fd5b503560ff16610b19565b6101ef600480360360e081101561040d57600080fd5b8135916020810135916001600160a01b036040830135169190810190608081016060820135600160201b81111561044357600080fd5b82018360208201111561045557600080fd5b803590602001918460018302840111600160201b8311171561047657600080fd5b91908080601f0160208091040260200160405190810160405280939291908181526020018383808284376000920191909152509295949360208101935035915050600160201b8111156104c857600080fd5b8201836020820111156104da57600080fd5b803590602001918460018302840111600160201b831117156104fb57600080fd5b91908080601f0160208091040260200160405190810160405280939291908181526020018383808284376000920191909152509295949360208101935035915050600160201b81111561054d57600080fd5b82018360208201111561055f57600080fd5b803590602001918460018302840111600160201b8311171561058057600080fd5b91908080601f0160208091040260200160405190810160405280939291908181526020018383808284376000920191909152509295949360208101935035915050600160201b8111156105d257600080fd5b8201836020820111156105e457600080fd5b803590602001918460018302840111600160201b8311171561060557600080fd5b91908080601f016020809104026020016040519081016040528093929190818152602001838380828437600092019190915250929550610b3a945050505050565b6102a4610c0b565b6101ef6004803603602081101561066457600080fd5b810190602081018135600160201b81111561067e57600080fd5b82018360208201111561069057600080fd5b803590602001918460018302840111600160201b831117156106b157600080fd5b91908080601f016020809104026020016040519081016040528093929190818152602001838380828437600092019190915250929550610c11945050505050565b61021f610c24565b6102f7610e73565b61021f610e82565b6101ef6004803603602081101561072057600080fd5b50356001600160a01b0316610ee3565b6101ef6004803603602081101561074657600080fd5b50356001600160a01b0316610f05565b6102f7610f27565b6102a4610f36565b6101ef6004803603602081101561077c57600080fd5b5035610f3c565b6101ef6004803603602081101561079957600080fd5b50356001600160a01b0316610f41565b6101ef600480360360208110156107bf57600080fd5b810190602081018135600160201b8111156107d957600080fd5b8201836020820111156107eb57600080fd5b803590602001918460018302840111600160201b8311171561080c57600080fd5b91908080601f016020809104026020016040519081016040528093929190818152602001838380828437600092019190915250929550610f63945050505050565b600280546001600160a01b0319166001600160a01b0392909216919091179055565b600f80546001600160a01b0319166001600160a01b0392909216919091179055565b60078054604080516020601f600260001961010060018816150201909516949094049384018190048102820181019092528281526060939092909183018282801561091d5780601f106108f25761010080835404028352916020019161091d565b820191906000526020600020905b81548152906001019060200180831161090057829003601f168201915b5050505050905090565b600054600154600854600d54600954600e54600f5460105460115460408051602081018b81529181018a905260608181018a9052608082018990529a9998979660ff16956001600160a01b039081169581169481169316919060a00186601281111561098f57fe5b8152602001856001600160a01b03168152602001846001600160a01b03168152602001836001600160a01b03168152602001826001600160a01b031681526020019950505050505050505050604051602081830303815290604052905090565b60015490565b60058054604080516020601f600260001961010060018816150201909516949094049384018190048102820181019092528281526060939092909183018282801561091d5780601f106108f25761010080835404028352916020019161091d565b60095460ff1690565b60048054604080516020601f600260001961010060018816150201909516949094049384018190048102820181019092528281526060939092909183018282801561091d5780601f106108f25761010080835404028352916020019161091d565b6002546001600160a01b031690565b6011546001600160a01b031690565b600e546001600160a01b031690565b60005490565b600f546001600160a01b031690565b8051610b1590600a906020840190610f72565b5050565b6009805482919060ff19166001836012811115610b3257fe5b021790555050565b60008790556001869055600280546001600160a01b0387166001600160a01b031991821681179092556003805490911690911790558351610b82906004906020870190610f72565b508251610b96906005906020860190610f72565b508151610baa906006906020850190610f72565b508051610bbe906007906020840190610f72565b5050600080549590950160085550506009805460ff191690555050600d5550600e80546001600160a01b0319908116909155600f8054821690556010805482169055601180549091169055565b600d5490565b8051610b1590600c906020840190610f72565b6000546001805460035460408051602081018681529181018490526001600160a01b0390921660608084018290526080840182905261010060a08501818152600480546002998116158402600019011698909804610120870181905292989793958695600594600694600794929360c081019260e082019282019161014001908a908015610cf35780601f10610cc857610100808354040283529160200191610cf3565b820191906000526020600020905b815481529060010190602001808311610cd657829003601f168201915b5050858103845288546002600019610100600184161502019091160480825260209091019089908015610d675780601f10610d3c57610100808354040283529160200191610d67565b820191906000526020600020905b815481529060010190602001808311610d4a57829003601f168201915b5050858103835287546002600019610100600184161502019091160480825260209091019088908015610ddb5780601f10610db057610100808354040283529160200191610ddb565b820191906000526020600020905b815481529060010190602001808311610dbe57829003601f168201915b5050858103825286546002600019610100600184161502019091160480825260209091019087908015610e4f5780601f10610e2457610100808354040283529160200191610e4f565b820191906000526020600020905b815481529060010190602001808311610e3257829003601f168201915b50509c50505050505050505050505050604051602081830303815290604052905090565b6010546001600160a01b031690565b60068054604080516020601f600260001961010060018816150201909516949094049384018190048102820181019092528281526060939092909183018282801561091d5780601f106108f25761010080835404028352916020019161091d565b600e80546001600160a01b0319166001600160a01b0392909216919091179055565b601180546001600160a01b0319166001600160a01b0392909216919091179055565b6003546001600160a01b031690565b60085490565b600d55565b601080546001600160a01b0319166001600160a01b0392909216919091179055565b8051610b1590600b9060208401905b828054600181600116156101000203166002900490600052602060002090601f016020900481019282610fa85760008555610fee565b82601f10610fc157805160ff1916838001178555610fee565b82800160010185558215610fee579182015b82811115610fee578251825591602001919060010190610fd3565b50610ffa929150610ffe565b5090565b5b80821115610ffa5760008155600101610fff56fea2646970667358221220b57ab4cd0d3683bc263920951e289179b05fbef5f333d574e1ba206198542c1064736f6c63430007060033456e756d657261626c655365743a20696e646578206f7574206f6620626f756e6473416363657373436f6e74726f6c3a2073656e646572206d75737420626520616e2061646d696e20746f206772616e744f776e61626c653a206e6577206f776e657220697320746865207a65726f2061646472657373eefb95e842a3287179d933b4460be539a1d5af11aa8b325bb45c5c8dc92de4ede28434228950b641dbbc0178de89daa359a87c6ee0d8399aeace52a98fe902b943616c6c6572206973206e6f742061204d616e7566616374757265722e000000416363657373436f6e74726f6c3a2073656e646572206d75737420626520616e2061646d696e20746f207265766f6b65c9f41f19cd323609a8840e20c19f0688fff7f2c7796dc69350af80f75835f815288a15c4a15d470e4cd9cad2f113b91206b520c26dbd3dd74627f0c057baa19ca952726ef2588ad078edf35b066f7c7406e207cb0003bbaba8cb53eba9553e7243616c6c6572206973206e6f742061204c61626f7261746f72792e0000000000416363657373436f6e74726f6c3a2063616e206f6e6c792072656e6f756e636520726f6c657320666f722073656c66a2646970667358221220eb0cbf860c3cf3a18f226dab5810bc02996905293fd3068fb292ecdfea4f9ecb64736f6c63430007060033416363657373436f6e74726f6c3a2073656e646572206d75737420626520616e2061646d696e20746f206772616e74",
  "immutableReferences": {},
  "source": "// Contracts/SupplyChain.sol\r\n// SPDX-License-Identifier: MIT\r\npragma solidity >=0.6.0 <0.8.0;\r\n\r\nimport \"@openzeppelin/contracts/access/AccessControl.sol\";\r\nimport \"@openzeppelin/contracts/access/Ownable.sol\";\r\nimport \"../emeraldaccesscontrol/MinerRole.sol\";\r\nimport \"../emeraldaccesscontrol/LaboratoryRole.sol\";\r\nimport \"../emeraldaccesscontrol/CustodianRole.sol\";\r\nimport \"../emeraldaccesscontrol/ManufacturerRole.sol\";\r\nimport \"../emeraldaccesscontrol/CustomerRole.sol\";\r\nimport \"./EmeraldStates.sol\";\r\nimport \"./Emerald.sol\";\r\n\r\n// Define a contract 'Supplychain'\r\ncontract SupplyChain is Ownable, AccessControl, MinerRole, LaboratoryRole, CustodianRole, ManufacturerRole, CustomerRole{\r\n\r\n  // Define a variable called 'upc' for Universal Product Code (UPC)\r\n  uint upc;\r\n\r\n  // Define a variable called 'sku' for Stock Keeping Unit (SKU)\r\n  uint sku;\r\n\r\n  // Define a public mapping 'emeralds' that maps the UPC to an Emerald.\r\n  mapping (uint => Emerald) emeralds;\r\n\r\n  // Define a public mapping 'emeraldHistory' that maps the UPC to an array of TxHash, \r\n  // that track its journey through the supply chain -- to be sent from DApp.\r\n  mapping (uint => string[]) emeraldsHistory;\r\n\r\n  EmeraldStates.State constant defaultState = EmeraldStates.State.Mined;\r\n\r\n  // Define 17 events with the same 17 state values and accept 'upc' as input argument\r\n  event Mined(uint upc);\r\n  event Scaled(uint upc);\r\n  event PackedForLab(uint upc);\r\n  event ShipedToLab(uint upc);\r\n  event LabReceived(uint upc);\r\n  event Certified(uint upc);\r\n  event ShippedToStore(uint upc);\r\n  event StorageReceived(uint upc);\r\n  event Stored(uint upc);\r\n  event ForSale(uint upc);\r\n  event Sold(uint upc);\r\n  event ShipToManufacture(uint upc);\r\n  event ManufacturerReceived(uint upc);\r\n  event Manufactured(uint upc);\r\n  event PackedForSale(uint upc);\r\n  event Published(uint upc);\r\n  event Buyed(uint upc);\r\n  event ShippedToCustomer(uint upc);\r\n  event Delivered(uint upc);\r\n\r\n  // Define a modifer that verifies the Caller\r\n  modifier verifyCaller (address _address) {\r\n    require(msg.sender == _address); \r\n    _;\r\n  }\r\n\r\n  // Define a modifier that checks if the paid amount is sufficient to cover the price\r\n  modifier paidEnough(uint _price) { \r\n    require(msg.value >= _price,\"Not enought paid amount\"); \r\n    _;\r\n  }\r\n  \r\n  // Define a modifier that checks the price and refunds the remaining balance\r\n  modifier checkValue(uint _upc) {\r\n    _;\r\n    uint _price = emeralds[_upc].GetMarketPrice();\r\n    uint amountToReturn = msg.value - _price;\r\n    msg.sender.transfer(amountToReturn);\r\n  }\r\n\r\n  // Define a modifier that checks if an item.state of a upc is Mined\r\n  modifier mined(uint _upc) {\r\n    require(emeralds[_upc].GetEmeraldState() == EmeraldStates.State.Mined);\r\n    _;\r\n  }\r\n\r\n  //Define a modifier that checks if an item.state of a upc is Processed\r\n  modifier scaled(uint _upc) {\r\n    require(emeralds[_upc].GetEmeraldState() == EmeraldStates.State.Scaled);\r\n    _;\r\n  }\r\n  \r\n  //Define a modifier that checks if an item.state of a upc is Packed\r\n  modifier packedForLab(uint _upc) {\r\n    require(emeralds[_upc].GetEmeraldState() == EmeraldStates.State.PackedForLab);\r\n    _;\r\n  }\r\n\r\n  // Define a modifier that checks if an item.state of a upc is ForSale\r\n  modifier shipedToLab(uint _upc) {\r\n    require(emeralds[_upc].GetEmeraldState() == EmeraldStates.State.ShipedToLab);\r\n    _;\r\n  }\r\n\r\n  // Define a modifier that checks if an item.state of a upc is Sold\r\n  modifier labReceived(uint _upc) {\r\n    require(emeralds[_upc].GetEmeraldState() == EmeraldStates.State.LabReceived);\r\n    _;\r\n  }\r\n  \r\n  // Define a modifier that checks if an item.state of a upc is Shipped\r\n  modifier certified(uint _upc) {\r\n    require(emeralds[_upc].GetEmeraldState() == EmeraldStates.State.Certified);\r\n    _;\r\n  }\r\n\r\n  // Define a modifier that checks if an item.state of a upc is Received\r\n  modifier shippedToStore(uint _upc) {\r\n    require(emeralds[_upc].GetEmeraldState() == EmeraldStates.State.ShippedToStore);\r\n    _;\r\n  }\r\n\r\n  // Define a modifier that checks if an item.state of a upc is Received\r\n  modifier storageReceived(uint _upc) {\r\n    require(emeralds[_upc].GetEmeraldState() == EmeraldStates.State.StorageReceived);\r\n    _;\r\n  }  \r\n\r\n  // Define a modifier that checks if an item.state of a upc is Purchased\r\n  modifier stored(uint _upc) {\r\n    require(emeralds[_upc].GetEmeraldState() == EmeraldStates.State.Stored);\r\n    _;\r\n  }\r\n\r\n  // Define a modifier that checks if an item.state of a upc is Mined\r\n  modifier forSale(uint _upc) {\r\n    require(emeralds[_upc].GetEmeraldState() == EmeraldStates.State.ForSale);\r\n    _;\r\n  }\r\n\r\n  // Define a modifier that checks if an item.state of a upc is Processed\r\n  modifier sold(uint _upc) {\r\n    require(emeralds[_upc].GetEmeraldState() == EmeraldStates.State.Sold);\r\n    _;\r\n  }\r\n  \r\n  // Define a modifier that checks if an item.state of a upc is Packed\r\n  modifier shiptoManufacture(uint _upc) {\r\n    require(emeralds[_upc].GetEmeraldState() == EmeraldStates.State.ShipToManufacture);\r\n    _;\r\n  }\r\n\r\n  // Define a modifier that checks if an item.state of a upc is Packed\r\n  modifier manufacturerReceived(uint _upc) {\r\n    require(emeralds[_upc].GetEmeraldState() == EmeraldStates.State.ManufacturerReceived);\r\n    _;\r\n  }\r\n\r\n  // Define a modifier that checks if an item.state of a upc is ForSale\r\n  modifier manufactured(uint _upc) {\r\n    require(emeralds[_upc].GetEmeraldState() == EmeraldStates.State.Manufactured);\r\n    _;\r\n  }\r\n\r\n  //Define a modifier that checks if an item.state of a upc is Sold\r\n  modifier packedForSale(uint _upc) {\r\n    require(emeralds[_upc].GetEmeraldState() == EmeraldStates.State.PackedForSale);\r\n    _;\r\n  }\r\n  \r\n  // Define a modifier that checks if an emerald.state of a upc is ShPublishedipped\r\n  modifier published(uint _upc) {\r\n    require(emeralds[_upc].GetEmeraldState() == EmeraldStates.State.Published);\r\n    _;\r\n  }\r\n\r\n  // Define a modifier that checks if an emerald.state of a upc is Buyed\r\n  modifier buyed(uint _upc) {\r\n    require(emeralds[_upc].GetEmeraldState() == EmeraldStates.State.Buyed);\r\n    _;\r\n  }\r\n\r\n  // Define a modifier that checks if an emerald.state of a upc is ShippedToClient\r\n  modifier shippedToCustomer(uint _upc) {\r\n    require(emeralds[_upc].GetEmeraldState() == EmeraldStates.State.ShippedToCustomer);\r\n    _;\r\n  }\r\n\r\n  // Define a modifier that checks if an emerald.state of a upc is Delivered\r\n  modifier delivered(uint _upc) {\r\n    require(emeralds[_upc].GetEmeraldState() == EmeraldStates.State.Delivered);\r\n    _;\r\n  }\r\n\r\n  // In the constructor set 'owner' to the address that instantiated the contract\r\n  // and set 'sku' to 1\r\n  // and set 'upc' to 1\r\n  constructor() {\r\n    //owner = msg.sender;\r\n    sku = 1;\r\n    upc = 1;\r\n    _setupRole(DEFAULT_ADMIN_ROLE, msg.sender);\r\n  }\r\n\r\n  // Define a function 'kill' if required\r\n  function kill() public onlyOwner{\r\n    selfdestruct(msg.sender);\r\n  }\r\n\r\n  // Define a function 'extractItem' that allows a farmer to mark an item 'Harvested'\r\n  function extractEmerald(\r\n    uint _sku,\r\n    uint _upc,\r\n    address payable _originMinerID,\r\n    string memory _originMineName,\r\n    string memory _originMineInformation, \r\n    string memory _originMineLatitude, \r\n    string memory _originMineLongitude  \r\n    )\r\n    public\r\n    onlyMiner\r\n\r\n    {\r\n\r\n    //add emerald to emeralds list in the contract\r\n    Emerald emerald = new Emerald();\r\n    emerald.SetExtractionInfo(\r\n      _sku,\r\n      _upc,\r\n      _originMinerID,\r\n      _originMineName,\r\n      _originMineInformation, \r\n      _originMineLatitude, \r\n      _originMineLongitude      \r\n    );\r\n\r\n    emerald.SetEmeraldState(EmeraldStates.State.Mined);\r\n\r\n    emeralds[_upc] = emerald;\r\n\r\n    //Increment sku\r\n    sku = sku + 1;\r\n\r\n    // Emit the appropriate event\r\n    emit Mined(_upc);\r\n    \r\n  }\r\n\r\n  // Define a function 'scaleItem' that allows a Miner to mark an item 'Processed'\r\n  function scaleEmerald(\r\n    uint _upc,\r\n    string memory _scaleInfo \r\n    ) \r\n    public\r\n    // Call modifier to check if upc has passed previous supply chain stage\r\n    mined(_upc)\r\n    // Call modifier to verify caller of this function\r\n    verifyCaller(emeralds[_upc].GetOwnerID())\r\n    \r\n    onlyMiner \r\n  \r\n  {\r\n    // Update the appropriate fields\r\n    emeralds[_upc].SetScaleInfo(\r\n      _scaleInfo \r\n    );\r\n\r\n    emeralds[_upc].SetEmeraldState(EmeraldStates.State.Scaled);\r\n\r\n    // Emit the appropriate event\r\n    emit Scaled(_upc);  \r\n  }\r\n\r\n  //Define a function 'packScaledItem' that allows a Miner to mark an item 'Packed'\r\n  function packScaledEmerald(uint _upc, address _laboratoryID, address _custodianID)\r\n    public \r\n    // Call modifier to check if upc has passed previous supply chain stage\r\n    scaled(_upc)\r\n    // Call modifier to verify caller of this function\r\n    verifyCaller(emeralds[_upc].GetOwnerID())\r\n    \r\n    onlyMiner \r\n  \r\n  {\r\n    // Update the appropriate fields\r\n    emeralds[_upc].AuthorizeLab(_laboratoryID);\r\n    emeralds[_upc].AuthorizeCustodian(_custodianID);\r\n    \r\n    // Update Emerald state\r\n    emeralds[_upc].SetEmeraldState(EmeraldStates.State.PackedForLab);\r\n\r\n    // Emit the appropriate event\r\n    emit PackedForLab(_upc);\r\n  }\r\n\r\n  // Define a function 'shipToLaboratory' that allows a Miner to mark an item 'ShipToLab'\r\n  function shipToLaboratory(uint _upc)\r\n    public \r\n    // Call modifier to check if upc has passed previous supply chain stage\r\n    packedForLab(_upc)\r\n    // Call modifier to verify caller of this function\r\n    verifyCaller(emeralds[_upc].GetOwnerID())\r\n    \r\n    onlyMiner \r\n  \r\n  {\r\n    // Update the appropriate fields\r\n    emeralds[_upc].SetEmeraldState(EmeraldStates.State.ShipedToLab);\r\n\r\n    // Emit the appropriate event\r\n    emit ShipedToLab(_upc);\r\n  }\r\n\r\n  // Define a function 'shipToLaboratory' that allows a Miner to mark an item 'ShipToLab'\r\n  function laboratoryReceived(uint _upc)\r\n    public \r\n    // Call modifier to check if upc has passed previous supply chain stage\r\n    shipedToLab(_upc)\r\n    // Call modifier to verify caller of this function\r\n    verifyCaller(emeralds[_upc].GetLaboratoryID())\r\n    \r\n    onlyLaboratory\r\n  \r\n  {\r\n    // Update the appropriate fields\r\n    emeralds[_upc].SetEmeraldState(EmeraldStates.State.LabReceived);\r\n\r\n    // Emit the appropriate event\r\n    emit LabReceived(_upc);\r\n  }\r\n\r\n  // Define a function 'scaleItem' that allows a Miner to mark an item 'Processed'\r\n  function certifyEmerald(\r\n    uint _upc,\r\n    string memory _certifiedProperties\r\n    ) \r\n    public\r\n    // Call modifier to check if upc has passed previous supply chain stage\r\n    labReceived(_upc)\r\n    // Call modifier to verify caller of this function\r\n    verifyCaller(emeralds[_upc].GetLaboratoryID())\r\n    \r\n    onlyLaboratory \r\n  \r\n  {\r\n    // Update the appropriate fields\r\n    emeralds[_upc].SetCertifiedInfo(_certifiedProperties);\r\n    emeralds[_upc].SetEmeraldState(EmeraldStates.State.Certified);\r\n\r\n    // Emit the appropriate event\r\n    emit Certified(_upc);  \r\n  }\r\n\r\n  // Define a function 'shipToLaboratory' that allows a Miner to mark an item 'ShipToLab'\r\n  function shipToSecureStore(uint _upc)\r\n    public \r\n    // Call modifier to check if upc has passed previous supply chain stage\r\n    certified(_upc)\r\n    // Call modifier to verify caller of this function\r\n    verifyCaller(emeralds[_upc].GetLaboratoryID())\r\n    \r\n    onlyLaboratory\r\n  \r\n  {\r\n    // Update the appropriate fields\r\n    emeralds[_upc].SetEmeraldState(EmeraldStates.State.ShippedToStore);\r\n\r\n    // Emit the appropriate event\r\n    emit ShippedToStore(_upc);\r\n  }\r\n\r\n  // Define a function 'shipToLaboratory' that allows a Miner to mark an item 'ShipToLab'\r\n  function SecureStorageReceived(uint _upc)\r\n    public \r\n    // Call modifier to check if upc has passed previous supply chain stage\r\n    shippedToStore(_upc)\r\n    // Call modifier to verify caller of this function\r\n    verifyCaller(emeralds[_upc].GetCustodianID())    \r\n    \r\n    onlyCustodian\r\n  \r\n  {\r\n    // Update the appropriate fields\r\n    emeralds[_upc].SetEmeraldState(EmeraldStates.State.StorageReceived);\r\n\r\n    // Emit the appropriate event\r\n    emit StorageReceived(_upc);\r\n  }\r\n\r\n  // Define a function 'shipToLaboratory' that allows a Miner to mark an item 'ShipToLab'\r\n  function StoreEmerald(uint _upc)\r\n    public \r\n    // Call modifier to check if upc has passed previous supply chain stage\r\n    storageReceived(_upc)\r\n    // Call modifier to verify caller of this function\r\n    verifyCaller(emeralds[_upc].GetCustodianID())\r\n    \r\n    onlyCustodian\r\n  \r\n  {\r\n    // Update the appropriate fields\r\n    emeralds[_upc].SetEmeraldState(EmeraldStates.State.Stored);\r\n\r\n    // Emit the appropriate event\r\n    emit Stored(_upc);\r\n  }\r\n\r\n  // Define a function 'shipToLaboratory' that allows a Miner to mark an item 'ShipToLab'\r\n  function registerForSale(uint _upc, uint _marketPrice)\r\n    public \r\n    // Call modifier to check if upc has passed previous supply chain stage\r\n    stored(_upc)\r\n    // Call modifier to verify caller of this function\r\n    verifyCaller(emeralds[_upc].GetOwnerID())\r\n    \r\n    onlyMiner\r\n  \r\n  {\r\n    //Setup market price  \r\n    emeralds[_upc].SetMarketPrice(_marketPrice);\r\n    // Update the appropriate fields\r\n    emeralds[_upc].SetEmeraldState(EmeraldStates.State.ForSale);\r\n\r\n    // Emit the appropriate event\r\n    emit ForSale(_upc);\r\n  }\r\n\r\n  // Define a function 'buyItem' that allows the disributor to mark an item 'Sold'\r\n  // Use the above defined modifiers to check if the item is available for sale, if the buyer has paid enough, \r\n  // and any excess ether sent is refunded back to the buyer\r\n  function buyFromMiner(uint _upc) public payable \r\n    // Call modifier to check if upc has passed previous supply chain stage\r\n    forSale(_upc)\r\n    // Call modifer to check if buyer has paid enough\r\n    paidEnough(emeralds[_upc].GetMarketPrice())\r\n    // Call modifer to send any excess ether back to buyer\r\n    checkValue(_upc)\r\n    \r\n    onlyManufacturer\r\n  \r\n  {\r\n    // Transfer money to Miner\r\n    (bool success, ) = emeralds[_upc].getOriginMinerID().call{value: emeralds[_upc].GetMarketPrice()}(\"\");\r\n    require(success, \"Transfer failed\");\r\n\r\n    // Tranfer emerald ownership\r\n    emeralds[_upc].SetOwnerID(msg.sender);\r\n\r\n    emeralds[_upc].SetManufacturerID(msg.sender);\r\n\r\n    // Update emerald state\r\n    emeralds[_upc].SetEmeraldState(EmeraldStates.State.Sold);\r\n\r\n    // Emit the appropriate event\r\n    emit Sold(_upc);\r\n    \r\n  }\r\n\r\n  // Define a function 'shipItem' that allows the distributor to mark an item 'Shipped'\r\n  // Use the above modifers to check if the item is sold\r\n  function shipToManufacturer(uint _upc) public \r\n    // Call modifier to check if upc has passed previous supply chain stage\r\n    sold(_upc)\r\n    // Call modifier to verify caller of this function\r\n    onlyCustodian\r\n    {\r\n    // Update the appropriate fields\r\n    emeralds[_upc].SetEmeraldState(EmeraldStates.State.ShipToManufacture);\r\n\r\n    // Emit the appropriate event\r\n    emit ShipToManufacture(_upc);    \r\n  }\r\n\r\n  // Define a function 'receiveItem' that allows the retailer to mark an item 'Received'\r\n  // Use the above modifiers to check if the item is shipped\r\n  function receiveFromStorage(uint _upc) public \r\n    // Call modifier to check if upc has passed previous supply chain stage\r\n    shiptoManufacture(_upc)\r\n    // Access Control List enforced by calling Smart Contract / DApp\r\n    onlyManufacturer\r\n    {\r\n    // Update the appropriate fields - ownerID, retailerID, itemState\r\n    emeralds[_upc].SetEmeraldState(EmeraldStates.State.ManufacturerReceived);\r\n\r\n    // Emit the appropriate event\r\n    emit ManufacturerReceived(_upc);    \r\n  }\r\n\r\n  // Define a function 'purchaseItem' that allows the consumer to mark an item 'Purchased'\r\n  // Use the above modifiers to check if the item is received\r\n  function manufactureEmerald(\r\n    uint _upc,\r\n    string memory _manofactureInfo\r\n    )    \r\n    public \r\n    // Call modifier to check if upc has passed previous supply chain stage\r\n    manufacturerReceived(_upc)\r\n    // Access Control List enforced by calling Smart Contract / DApp\r\n    onlyManufacturer\r\n    {\r\n    // Update the appropriate fields\r\n    emeralds[_upc].SetManufacturedInfo(_manofactureInfo);\r\n\r\n    // Update the appropriate fields - ownerID, consumerID, itemState\r\n    emeralds[_upc].SetEmeraldState(EmeraldStates.State.Manufactured);\r\n    // Emit the appropriate event\r\n    emit Manufactured(_upc);    \r\n  }\r\n\r\n  // Define a function 'purchaseItem' that allows the consumer to mark an item 'Purchased'\r\n  // Use the above modifiers to check if the item is received\r\n  function packCutEmerald(uint _upc) public \r\n    // Call modifier to check if upc has passed previous supply chain stage\r\n    manufactured(_upc)\r\n    // Access Control List enforced by calling Smart Contract / DApp\r\n    onlyManufacturer\r\n    {\r\n    // Update the appropriate fields - ownerID, consumerID, itemState\r\n    emeralds[_upc].SetEmeraldState(EmeraldStates.State.PackedForSale);\r\n    // Emit the appropriate event\r\n    emit PackedForSale(upc);    \r\n  }\r\n\r\n  // Define a function 'purchaseItem' that allows the consumer to mark an item 'Purchased'\r\n  // Use the above modifiers to check if the item is received\r\n  function publishEmerald(uint _upc, uint _marketPrice) public \r\n    // Call modifier to check if upc has passed previous supply chain stage\r\n    packedForSale(_upc)\r\n    // Access Control List enforced by calling Smart Contract / DApp\r\n    onlyManufacturer\r\n    {\r\n\r\n    //Setup market price  \r\n    emeralds[_upc].SetMarketPrice(_marketPrice);\r\n    // Update the appropriate fields - ownerID, consumerID, itemState\r\n    emeralds[_upc].SetEmeraldState(EmeraldStates.State.Published);\r\n    // Emit the appropriate event\r\n    emit Published(_upc);    \r\n  }\r\n\r\n  // Define a function 'purchaseItem' that allows the consumer to mark an item 'Purchased'\r\n  // Use the above modifiers to check if the item is received\r\n  function buyFromManufacturer(uint _upc) public payable\r\n    // Call modifier to check if upc has passed previous supply chain stage\r\n    published(_upc)\r\n    // Call modifer to check if buyer has paid enough\r\n    paidEnough(emeralds[_upc].GetMarketPrice())\r\n    // Call modifer to send any excess ether back to buyer\r\n    checkValue(_upc)\r\n    \r\n    onlyCustomer\r\n    {\r\n    // Update the appropriate fields - ownerID, consumerID, itemState\r\n    emeralds[_upc].SetEmeraldState(EmeraldStates.State.Buyed);\r\n    \r\n    // Transfer money to Manufacturer\r\n    (bool success, ) = emeralds[_upc].getManufacturerID().call{value: emeralds[_upc].GetMarketPrice()}(\"\");\r\n    require(success, \"Transfer failed\");\r\n    \r\n    // Set the customerID value\r\n    emeralds[_upc].SetCustomerID(msg.sender);\r\n\r\n    // Transfer ownership\r\n    emeralds[_upc].SetOwnerID(msg.sender);\r\n\r\n    // Emit the appropriate event\r\n    emit Buyed(_upc);    \r\n  }\r\n\r\n  // Define a function 'purchaseItem' that allows the consumer to mark an item 'Purchased'\r\n  // Use the above modifiers to check if the item is received\r\n  function shipEmeraldToCustomer(uint _upc) public \r\n    // Call modifier to check if upc has passed previous supply chain stage\r\n    buyed(_upc)\r\n    // Access Control List enforced by calling Smart Contract / DApp\r\n    onlyManufacturer\r\n\r\n    {\r\n    // Update the appropriate fields - ownerID, consumerID, itemState\r\n    emeralds[_upc].SetEmeraldState(EmeraldStates.State.ShippedToCustomer);\r\n    // Emit the appropriate event\r\n    emit ShippedToCustomer(_upc);    \r\n  }\r\n\r\n  // Define a function 'purchaseItem' that allows the consumer to mark an item 'Purchased'\r\n  function deliverToCustomer(uint _upc) public \r\n    // Call modifier to check if upc has passed previous supply chain stage\r\n    shippedToCustomer(_upc)\r\n    // Access Control List enforced by calling Smart Contract / DApp\r\n    onlyCustomer\r\n    {\r\n    // Update the appropriate fields - ownerID, consumerID, itemState\r\n    emeralds[_upc].SetEmeraldState(EmeraldStates.State.Delivered);\r\n    // Emit the appropriate event\r\n    emit Delivered(_upc);    \r\n  }\r\n\r\n  // Define a function 'fetchItemBufferOne' that fetches the data\r\n  function fetchItemBufferOne(uint _upc) public view returns (bytes memory) \r\n  {\r\n    return (emeralds[_upc].GetBasicInfo());\r\n  }\r\n\r\n  // Define a function 'fetchItemBufferTwo' that fetches the data\r\n  function fetchItemBufferTwo(uint _upc) public view returns (bytes memory) \r\n  {\r\n    return (emeralds[_upc].GetDetailedInfo());\r\n  }\r\n}\r\n",
  "sourcePath": "C:/GitHub/marketplace/src/contracts/emeraldbase/SupplyChain.sol",
  "compiler": {
    "name": "solc",
    "version": "0.7.6+commit.7338295f.Emscripten.clang"
  },
  "schemaVersion": "3.3.4",
  "updatedAt": "2021-02-22T03:38:48.675Z",
  "networkType": "ethereum",
  "devdoc": {
    "kind": "dev",
    "methods": {
      "getRoleAdmin(bytes32)": {
        "details": "Returns the admin role that controls `role`. See {grantRole} and {revokeRole}. To change a role's admin, use {_setRoleAdmin}."
      },
      "getRoleMember(bytes32,uint256)": {
        "details": "Returns one of the accounts that have `role`. `index` must be a value between 0 and {getRoleMemberCount}, non-inclusive. Role bearers are not sorted in any particular way, and their ordering may change at any point. WARNING: When using {getRoleMember} and {getRoleMemberCount}, make sure you perform all queries on the same block. See the following https://forum.openzeppelin.com/t/iterating-over-elements-on-enumerableset-in-openzeppelin-contracts/2296[forum post] for more information."
      },
      "getRoleMemberCount(bytes32)": {
        "details": "Returns the number of accounts that have `role`. Can be used together with {getRoleMember} to enumerate all bearers of a role."
      },
      "grantRole(bytes32,address)": {
        "details": "Grants `role` to `account`. If `account` had not been already granted `role`, emits a {RoleGranted} event. Requirements: - the caller must have ``role``'s admin role."
      },
      "hasRole(bytes32,address)": {
        "details": "Returns `true` if `account` has been granted `role`."
      },
      "owner()": {
        "details": "Returns the address of the current owner."
      },
      "renounceOwnership()": {
        "details": "Leaves the contract without owner. It will not be possible to call `onlyOwner` functions anymore. Can only be called by the current owner. NOTE: Renouncing ownership will leave the contract without an owner, thereby removing any functionality that is only available to the owner."
      },
      "renounceRole(bytes32,address)": {
        "details": "Revokes `role` from the calling account. Roles are often managed via {grantRole} and {revokeRole}: this function's purpose is to provide a mechanism for accounts to lose their privileges if they are compromised (such as when a trusted device is misplaced). If the calling account had been granted `role`, emits a {RoleRevoked} event. Requirements: - the caller must be `account`."
      },
      "revokeRole(bytes32,address)": {
        "details": "Revokes `role` from `account`. If `account` had been granted `role`, emits a {RoleRevoked} event. Requirements: - the caller must have ``role``'s admin role."
      },
      "transferOwnership(address)": {
        "details": "Transfers ownership of the contract to a new account (`newOwner`). Can only be called by the current owner."
      }
    },
    "version": 1
  },
  "userdoc": {
    "kind": "user",
    "methods": {},
    "version": 1
  }
}